:10083500E4FDFCC3ED9FEC9E5015E4FBFA0BBB00F9
:0F084500010AEB64354A70F50DBD00010C80E42B
:010854002281
:09086D00D292D291C2B4C29022D1
:09087600C292C291D2B4D29022C8
:09087F00D292C291C2B4D29022BF
:09088800C292D291D2B4C29022B6
:0308550012083551
:09085800C292C291C2B4C2902206
:10080000D293D29412086D7FD07E07120855120839
:10081000767FE87E031208551208887FB87E0B1297
:10082000083512085812087F1208351208587F88B8
:050830007E13020835F3
:0300000002086192
:0C086100787FE4F6D8FD758107020800DE
:00000001FF
