:060DC8004552524F52009B
:0F0D8300010E0002080000021300000211000020
:100D5200E4FDFCC3ED9FEC9E5015E4FBFA0BBB00D7
:0F0D6200010AEB64354A70F50DBD00010C80E409
:010D7100225F
:0D0CD400D2A4C2A4E94408F5A0D2A4C2A491
:100CE100E5A05480FFC2A4C2A6D2A5300013D2A4AD
:100CF100EF447FF5A0E5A0640324FF9200C2A48025
:010D0100EA07
:010D020022CE
:100D72008F0E7804EF08800103D8FDF50E540FFFA3
:010D8200224E
:020C7400AE07C9
:100C7600E5A05480FD120CE1AF06120D72EF4DF5A2
:100C8600A0C2A5C2A6D2A4C2A4EE540F4DF5A0C21E
:0E0C9600A5C2A6D2A4C2A47F027E00020D5207
:020CA400AE0799
:100CA600E5A05480FD120D72AC07120CE1EC4DF577
:100CB600A0C2A5D2A6D2A4C2A4EE540F4DF5A0C2DE
:0E0CC600A5D2A6D2A4C2A47F027E00020D52C7
:100B8B00E5A05480F9C2A6C2A57F287E00120D52A3
:100B9B00C2A4E94403F5A0D2A4C2A47F04120D524F
:100BAB00E94403F5A0D2A4C2A47F02120D52E9447A
:100BBB0003F5A0D2A4C2A4120D52E94402120CDB1D
:100BCB00E94402F5A0120CD489A0120CD489A0D24E
:100BDB00A4C2A4E94401120CDB89A0D2A4C2A4E9EB
:100BEB004406120CDB7F0F120C747F01120C747F06
:090BFB0006120C747F80020C74D8
:100D0300A905EF24FE600F1460111460132403700F
:100D130016E9247F800DE924BF8008E9249380032A
:080D2300E924D3FF120C742235
:100D2B008B288A29892AAB28AA29A92A12095FFFAD
:100D3B006010120CA47401252AF52AE43529F52933
:070D4B0080E47F0C020C7430
:0A0DA2007F01120C747F80020C74B4
:0609DB00AB09AA087D0132
:0609E1008F218B828A8346
:1009E700E4F527E5216003ED70077F80120C748022
:1009F70005AF21120D03E526640545256005E527AA
:100A0700B4011C7C277D10AF82AE83120978EF24D6
:100A170030F51AE43EF519AF1A120CA4752701E553
:100A270026640445256005E527B401277C037DE896
:100A3700AF82AE831209788E0A8F0B7C007D0A1273
:100A47000978ED2430F516E43CF515AF16120CA421
:100A5700752701E526640345256005E527B40127C9
:100A67007C007D64AF82AE831209788E0A8F0B7C7F
:100A7700007D0A120978ED2430F518E43CF517AF2C
:100A870018120CA4752701E526640245256005E5C3
:100A970027B401277C007D0AAF82AE831209788EC6
:100AA7000A8F0B7C007D0A120978ED2430F50DE4DE
:100AB7003CF50CAF0D120CA4752701E52664014522
:100AC700256005E527B40119AE83AF827C007D0A56
:100AD700120978ED2430F510E43CF50FAF10120C35
:100AE700A4D3E5269405E5256480948040097BFF1F
:070AF7007A0D79C8120D2BE6
:010AFE0022D5
:0A0DAC0075880475A88475B008224C
:03001300020D9348
:0F0D9300C0E00509E50970020508C28BD0E03207
:090DB600D292D291C2B4C2902283
:090DBF00C292C291C2B4C290229A
:100C0400120B8B120DA27511017512F47FF47E0183
:100C1400120D52AC11AD12E41208A57BE57AD0791D
:100C2400AA78401208031208DE8E138F14120DAC3A
:100C3400752500752602AB14AA137D057F011209E0
:100C4400E1D293D2947525007526027F011209DB47
:100C5400120DB6C3E5099514E5089513500D7525D5
:100C6400007526027F021209DB80E8120DBF80FEA8
:10080000020954EC5D046005E85904700302094ACA
:10081000120915580460F6EC4860F2EC7004FDFE15
:10082000FF22C860DB2481C85009C39860025006CB
:100830000209519850CAF582E9294B4A7005AB82EA
:1008400002094075F0007C1A7880C3EF9BEE9AEDA8
:1008500099400DC3EF9BFFEE9AFEED99FDE842F043
:10086000DC23ACF0D0E0FFD0E0FED0E0FDAB822096
:10087000E7101BEB60BAEC2CFCEF33FFEE33FEED20
:1008800033FD02092CE803F830E705C0F075F000ED
:10089000EF2FFFEE33FEED33FD40B830E7C280AA04
:1008A00075F020800E75F010800575F0087D007ED3
:1008B000007F003392D530D5031209CDEC334010C0
:1008C000EF33FFEE33FEED33FDEC33FCD5F0ED22DC
:0E08D000E5F0247EA2D513CC92E7CDCEFF2218
:1008DE00EDD2E7CD33EC3392D524814006E4FFFE12
:1008EE00FDFC22FCE4CFCECDCC24E0501174FF8071
:1008FE00EDC3CC13CCCD13CDCE13CECF13CF04700E
:07090E00F030D5DE0209CD37
:10091500E9D2E7C933E833F892D5EDD2E7CD33EC28
:0709250033FC5002B2D522A1
:10092C00EC30E7100FBF000C0EBE00080DBD00042C
:10093C000BEB6014A2D5EB13FCED92E7FD2274FFD8
:10094C00FCFDFEFF22E480F8A2D574FF13FC7D8031
:03095C00E480EF45
:03000000020AFFF2
:0C0AFF00787FE4F6D8FD75812A020B46D2
:10095F00BB010689828A83E0225002E722BBFE0296
:09096F00E32289828A83E49322C9
:10097800BC000BBE0029EF8DF084FFADF022E4CC63
:10098800F875F008EF2FFFEE33FEEC33FCEE9DEC2C
:10099800984005FCEE9DFE0FD5F0E9E4CEFD22ED72
:1009A800F8F5F0EE8420D21CFEADF075F008EF2FBC
:1009B800FFED33FD4007985006D5F0F222C398FDAD
:0509C8000FD5F0EA224A
:0E09CD00C3E49FFFE49EFEE49DFDE49CFC223B
:100B0B00020C04E493A3F8E493A34003F68001F2F0
:100B1B0008DFF48029E493A3F85407240CC8C333EB
:100B2B00C4540F4420C8834004F456800146F6DFBA
:100B3B00E4800B0102040810204080900D83E47EBA
:100B4B00019360BCA3FF543F30E509541FFEE493AF
:100B5B00A360010ECF54C025E060A840B8E493A376
:100B6B00FAE493A3F8E493A3C8C582C8CAC583CAA1
:100B7B00F0A3C8C582C8CAC583CADFE9DEE780BE59
:010D92000060
:00000001FF
