:10083000E4FDFCC3ED9FEC9E5015E4FBFA0BBB00FE
:0F084000010AEB64354A70F50DBD00010C80E430
:01084F002286
:09086800D292D291C2B4C29022D6
:09087100C292C291D2B4D29022CD
:09087A00D292C291C2B4D29022C4
:09088300C292D291D2B4C29022BB
:030850001208305B
:09085300C292C291C2B4C290220B
:10080000D293D2941208687FD07E07120850120843
:10081000717FE87E031208501208837FB87E0B12A6
:10082000083012085312087A12083012085380FE5A
:0300000002085C97
:0C085C00787FE4F6D8FD758107020800E3
:00000001FF
