:060E1F004552524F520043
:090E0C000126000129000121006A
:100D6E00E4FDFCC3ED9FEC9E5015E4FBFA0BBB00BB
:0F0D7E00010AEB64354A70F50DBD00010C80E4ED
:010D8D002243
:0D0CF000D2A4C2A4E94408F5A0D2A4C2A475
:100CFD00E5A05480FFC2A4C2A6D2A5300013D2A491
:100D0D00EF447FF5A0E5A0640324FF9200C2A48008
:010D1D00EAEB
:010D1E0022B2
:100DE1008F267804EF08800103D8FDF526540FFF04
:010DF10022DF
:020C9000AE07AD
:100C9200E5A05480FD120CFDAF06120DE1EF4DF5FB
:100CA200A0C2A5C2A6D2A4C2A4EE540F4DF5A0C202
:0E0CB200A5C2A6D2A4C2A47F027E00020D6ECF
:020CC000AE077D
:100CC200E5A05480FD120DE1AC07120CFDEC4DF5D0
:100CD200A0C2A5D2A6D2A4C2A4EE540F4DF5A0C2C2
:0E0CE200A5D2A6D2A4C2A47F027E00020D6E8F
:100BA900E5A05480F9C2A6C2A57F287E00120D6E69
:100BB900C2A4E94403F5A0D2A4C2A47F04120D6E15
:100BC900E94403F5A0D2A4C2A47F02120D6EE94440
:100BD90003F5A0D2A4C2A4120D6EE94402120CF7C7
:100BE900E94402F5A0120CF089A0120CF089A0D2F8
:100BF900A4C2A4E94401120CF789A0D2A4C2A4E9B1
:100C09004406120CF77F0F120C907F01120C907F93
:090C190006120C907F80020C9081
:100D1F00A905EF24FE600F146011146013240370F3
:100D2F0016E9247F800DE924BF8008E9249380030E
:080D3F00E924D3FF120C9022FD
:100D47008B168A178918AB16AA17A918120C22FF37
:100D57006010120CC074012518F518E43517F51743
:070D670080E47F0C020C90F8
:0A0E02007F01120C907F80020C901B
:0609FF008F0F8B828A833A
:100A0500E4F515E50F6003ED70077F80120C90800B
:100A150005AF0F120D1FE514640545136005E515B7
:100A2500B4011C7C277D10AF82AE83120C3BEF24F2
:100A350030F52FE43EF52EAF2F120CC0751501E5EC
:100A450014640445136005E515B401277C037DE8AE
:100A5500AF82AE83120C3B8E228F237C007D0A125F
:100A65000C3BED2430F52BE43CF52AAF2B120CC0E2
:100A7500751501E514640345136005E515B40127F3
:100A85007C007D64AF82AE83120C3B8E228F237C6B
:100A9500007D0A120C3BED2430F52DE43CF52CAF1E
:100AA5002D120CC0751501E514640245136005E5AA
:100AB50015B401277C007D0AAF82AE83120C3B8EF4
:100AC500228F237C007D0A120C3BED2430F525E4B2
:100AD5003CF524AF25120CC0751501E514640145DC
:100AE500136005E515B40119AE83AF827C007D0A5C
:100AF500120C3BED2430F528E43CF527AF28120C09
:100B0500C0D3E5149405E5136480948040097BFF08
:070B15007A0E791F120D4753
:010B1C0022B6
:100DA6008F80D2B6C2B67F027E00120D6E7580FFAE
:060DB600D2B7AF80C2B706
:010DBC002214
:030E25008FFA221F
:030E28008FFB221B
:100DF200D292D291C2B4C2907F4F120E25020E2817
:100DBD00D292D291C2B4C2907F5F120E257F2F02C4
:020DCD000E28EE
:100DCF00D292D291C2B4C2907F3F120E257F5F02A2
:020DDF000E28DC
:090E1600C292C291C2B4C2902242
:100D8E0075D98075D840E4F5EA75FAFFF5EB75FB79
:080D9E00FF75DA4275DB422209
:10080000E4F508F509F50AF50BF50CF50DF50EC242
:10081000B7C2B6120BA9120D8E120E02120DF27F84
:1008200004120DA67508008F097F05120DA6750A22
:10083000008F0B7F06120DA6750C008F0D7513002F
:10084000751403AB09AA087D017F011209FF751316
:1008500000751403AB0BAA0A7D067F011209FF7510
:100860001300751403AB0DAA0C7D0B7F011209FF59
:10087000E521FB7A007513007514017D017F0212DA
:1008800009FFE4F521D3E5099432E5089400401806
:10089000E50B9414E50A9400500EE50D9432E50C36
:1008A00094004004E5216023C3E5099414E508940D
:1008B00000501EE50B9432E50A94004014E50D94B7
:1008C00014E50C9400500AE5217006752101120D03
:1008D000F2C3E5099432E50894005029E50D9432FD
:1008E000E50C9400401FE521701BE50B9414E50A0C
:1008F00094005011752101120DBDD3E5099432E524
:1009000008940050F5D3E5099432E5089400402A94
:10091000E50D9432E50C94005020E521701CC3E5F0
:100920000B9414E50A94005011752101120DCFD3D8
:10093000E50D9432E50C940050F5D3E5099414E5E7
:100940000894004029E50D9414E50C9400501FE52F
:1009500021701BE50B9432E50A94004011752101CA
:10096000120DBDC3E5099414E508940040F5C3E5F4
:10097000099414E5089400502AE50D9414E50C94AC
:10098000004020E521701CD3E50B9432E50A940069
:100990004011752101120DCFC3E50D9414E50C949F
:1009A0000040F5D3E5099432E5089400401AD3E5F8
:1009B0000B9432E50A9400400FD3E50D9432E50C18
:1009C00094004004E5216031C3E5099414E50894DE
:1009D00000400302081FC3E50B9414E50A9400408D
:1009E0000302081FC3E50D9414E50C9400400302B4
:0F09F000081FE521600302081F120E1602081FE0
:03000000020B1DD3
:0C0B1D00787FE4F6D8FD75812F020B6490
:100C2200BB010689828A83E0225002E722BBFE02D0
:090C3200E32289828A83E4932203
:100C3B00BC000BBE0029EF8DF084FFADF022E4CC9D
:100C4B00F875F008EF2FFFEE33FEEC33FCEE9DEC66
:100C5B00984005FCEE9DFE0FD5F0E9E4CEFD22EDAC
:100C6B00F8F5F0EE8420D21CFEADF075F008EF2FF6
:100C7B00FFED33FD4007985006D5F0F222C398FDE7
:050C8B000FD5F0EA2284
:100B2900020800E493A3F8E493A34003F68001F2DA
:100B390008DFF48029E493A3F85407240CC8C333CD
:100B4900C4540F4420C8834004F456800146F6DF9C
:100B5900E4800B0102040810204080900E0CE47E12
:100B6900019360BCA3FF543F30E509541FFEE49391
:100B7900A360010ECF54C025E060A840B8E493A358
:100B8900FAE493A3F8E493A3C8C582C8CAC583CA83
:100B9900F0A3C8C582C8CAC583CADFE9DEE780BE3B
:010E150000DC
:00000001FF
