:100E17004552524F520020204642562047554920FE
:100E27004D4F444520204E455820526F626F7469DC
:060E3700637320494E44E4
:100E5D00015400014300014200014D00014C00020C
:0A0E6D00570000024E00000159007A
:100E3D00E4FDFCC3ED9FEC9E5015E4FBFA0BBB00EB
:0F0E4D00010AEB64354A70F50DBD00010C80E41D
:010E5C002273
:0D0D9900D2A4C2A4E94408F5A0D2A4C2A4CB
:100DA600E5A05480FFC2A4C2A6D2A5300013D2A4E7
:100DB600EF447FF5A0E5A0640324FF9200C2A4805F
:010DC600EA42
:010DC7002209
:100EB5008F547804EF08800103D8FDF554540FFFD3
:010EC500220A
:020D6900AE07D3
:100D6B00E5A05480FD120DA6AF06120EB5EF4DF5A2
:100D7B00A0C2A5C2A6D2A4C2A4EE540F4DF5A0C228
:0E0D8B00A5C2A6D2A4C2A47F027E00020E3D25
:060D0100AF822FF8E6FFAF
:020D0700AE0735
:100D0900E5A05480FD120EB5AC07120DA6EC4DF509
:100D1900A0C2A5D2A6D2A4C2A4EE540F4DF5A0C27A
:0E0D2900A5D2A6D2A4C2A47F027E00020E3D77
:100C2900E5A05480F9C2A6C2A57F287E00120E3D18
:100C3900C2A4E94403F5A0D2A4C2A47F04120E3DC4
:100C4900E94403F5A0D2A4C2A47F02120E3DE944EF
:100C590003F5A0D2A4C2A4120E3DE94402120DA0CC
:100C6900E94402F5A0120D9989A0120D9989A0D223
:100C7900A4C2A4E94401120DA089A0D2A4C2A4E986
:100C89004406120DA07F0F120D697F01120D697FB5
:090C990006120D697F80020D694D
:100DC800A905EF24FE600F1460111460132403704A
:100DD80016E9247F800DE924BF8008E92493800365
:080DE800E924D3FF120D69227A
:100DF0008B0F8A108911AB0FAA10A9111208F6FFE8
:100E00006010120D0774012511F511E43510F5106D
:070E100080E47F0C020D6974
:0A0EE6007F01120D697F80020D6983
:060964008F088B828A83DC
:10096A00E4F50EE5086003ED70077F80120D6980DB
:10097A0005AF08120DC8E50D6405450C6005E50EC6
:10098A00B4011C7C277D10AF82AE8312090FEF24BD
:10099A0030F55FE43EF55EAF5F120D07750E01E5B7
:1009AA000D6404450C6005E50EB401277C037DE85F
:1009BA00AF82AE8312090F8E508F517C007D0A12CE
:1009CA00090FED2430F55BE43CF55AAF5B120D07D5
:1009DA00750E01E50D6403450C6005E50EB40127AB
:1009EA007C007D64AF82AE8312090F8E508F517CDA
:1009FA00007D0A12090FED2430F55DE43CF55CAF89
:100A0A005D120D07750E01E50D6402450C6005E5E2
:100A1A000EB401277C007D0AAF82AE8312090F8EC5
:100A2A00508F517C007D0A12090FED2430F553E4F2
:100A3A003CF552AF53120D07750E01E50D640145E1
:100A4A000C6005E50EB40119AE83AF827C007D0A05
:100A5A0012090FED2430F556E43CF555AF56120D48
:100A6A0007D3E50D9405E50C6480948040097BFF6B
:070A7A007A0E7917120DF04E
:010A81002252
:100CA20090000078227C007D007BFF7A0E791D7E09
:100CB200007F101208D078327C007D007BFF7A0E14
:100CC200792D7E007F101208D07F01120D697F06F8
:100CD200120D69E4F583F5827422120D01A3E582F7
:100CE2006410458370F27FC0120D69E4F583F582CA
:0E0CF2007432120D01A3E5826410458370F286
:010D000022D0
:100E78008F80D2B6C2B67F027E00120E3D7580FF0B
:060E8800D2B7AF80C2B733
:010E8E002241
:090EF000D28AD2AFD2AAD2B322F9
:100E8F0075D98075D840E4F5EA75FAFF75DA4275C1
:030E9F00DB422211
:100EA20075D98075D840E4F5EB75FBFF75DA4275AC
:030EB200DB4222FE
:100EC600758920758DFD758840759850C298C299B0
:010ED60022F9
:060EF9008F993099FD22E3
:020EFF00AF99A9
:010F010022CD
:03001300020ED703
:0F0ED700C0E00558E55870020557C28BD0E032D5
:03002300020A824C
:0B0A8200C0E0C0D075D000C006C00767
:100A8D00120EFFAE07BEC205AF47120EF9BEC3056B
:100A9D00AF44120EF9BEC405AF4B120EF9BE600580
:100AAD00AF45120EF9BE6405AF48120EF9BE6505CD
:100ABD00AF49120EF9BE6605AF4A120EF9BE6205B8
:100ACD00AF46120EF9BE6902C2A7BE6A02D2A7BE18
:100ADD00510CD293D294D292D291C2B4C290BE5242
:100AED000CD293D294C292C291D2B4D290BE540C75
:100AFD00D293D294D292C291C2B4D290BE530CD2A0
:100B0D0093D294C292D291D2B4C290BE590CD293C8
:100B1D00D294C292C291C2B4C290EE54F0FFBF10F3
:100B2D000A120E8FEE540FF54CF543EE54F0FFBF45
:100B3D002013EE540FF54CC454F02543F543C37404
:100B4D00FF9543F5FABF300A120EA2EE540FF54C85
:100B5D00F542EE54F0FFBF4013EE540FF54CC45464
:100B6D00F02542F543C374FF9543F5FBBE720B852B
:100B7D00574E85584FAF4F120EF9BE7306E54EFF17
:070B8D00120EF9C298C29993
:090B9400D007D006D0D0D0E03229
:100D3700E4F521C2B7C2B675A890D2A7120C291242
:100D47000EC6120EF0120CA2E4F521AF21120E7896
:100D570074442521F8A6070521E521C3940840EB33
:020D670080E624
:03000000020B9D53
:0C0B9D00787FE4F6D8FD75815F020BE460
:10080000E709F608DFFA8046E709F208DFFA803EDA
:1008100088828C83E709F0A3DFFA8032E309F608C7
:10082000DFFA8078E309F208DFFA807088828C832F
:10083000E309F0A3DFFA806489828A83E0A3F608E3
:10084000DFFA805889828A83E0A3F208DFFA804CBD
:1008500080D280FA80C680D4806980F28033801094
:1008600080A680EA809A80A880DA80E280CA8033FD
:1008700089828A83ECFAE493A3C8C582C8CCC58375
:10088000CCF0A3C8C582C8CCC583CCDFE9DEE78045
:100890000D89828A83E493A3F608DFF9ECFAA9F0C4
:1008A000EDFB2289828A83ECFAE0A3C8C582C8CC1A
:1008B000C583CCF0A3C8C582C8CCC583CCDFEADE33
:1008C000E880DB89828A83E493A3F208DFF980CC95
:1008D00088F0EF60010E4E60C388F0ED2402B4048E
:1008E0000050B9F582EB2402B4040050AF23234535
:0608F00082239008507302
:1008F600BB010689828A83E0225002E722BBFE0200
:09090600E32289828A83E4932232
:10090F00BC000BBE0029EF8DF084FFADF022E4CCCC
:10091F00F875F008EF2FFFEE33FEEC33FCEE9DEC95
:10092F00984005FCEE9DFE0FD5F0E9E4CEFD22EDDB
:10093F00F8F5F0EE8420D21CFEADF075F008EF2F25
:10094F00FFED33FD4007985006D5F0F222C398FD16
:05095F000FD5F0EA22B3
:100BA900020D37E493A3F8E493A34003F68001F21E
:100BB90008DFF48029E493A3F85407240CC8C3334D
:100BC900C4540F4420C8834004F456800146F6DF1C
:100BD900E4800B0102040810204080900E5DE47E41
:100BE900019360BCA3FF543F30E509541FFEE49311
:100BF900A360010ECF54C025E060A840B8E493A3D8
:100C0900FAE493A3F8E493A3C8C582C8CAC583CA02
:100C1900F0A3C8C582C8CAC583CADFE9DEE780BEBA
:010E7700007A
:00000001FF
