:0611F9004552524F520066
:1010E60001300001390002260000023500000233FB
:1010F600000002370000022E000002210000022438
:051106000000012300C0
:071098001211E47FF47E0158
:10109F00E4FDFCC3ED9FEC9E5015E4FBFA0BBB0087
:0F10AF00010AEB64354A70F50DBD00010C80E4B9
:0110BE00220F
:0D104100D2A4C2A4E94408F5A0D2A4C2A420
:10104E00E5A05480FFC2A4C2A6D2A5300013D2A43C
:10105E00EF447FF5A0E5A0640324FF9200C2A480B4
:01106E00EA97
:01106F00225E
:10118C008F307804EF08800103D8FDF530540FFF41
:01119C002230
:020FE100AE0759
:100FE300E5A05480FD12104EAF0612118CEF4DF5A3
:100FF300A0C2A5C2A6D2A4C2A4EE540F4DF5A0C2AE
:0E100300A5C2A6D2A4C2A47F027E0002109F46
:02101100AE0728
:10101300E5A05480FD12118CAC0712104EEC4DF577
:10102300A0C2A5D2A6D2A4C2A4EE540F4DF5A0C26D
:0E103300A5D2A6D2A4C2A47F027E0002109F06
:100D3D00E5A05480F9C2A6C2A57F287E0012109F9F
:100D4D00C2A4E94403F5A0D2A4C2A47F0412109F4B
:100D5D00E94403F5A0D2A4C2A47F0212109FE94476
:100D6D0003F5A0D2A4C2A412109FE94402121048A8
:100D7D00E94402F5A012104189A012104189A0D2B8
:100D8D00A4C2A4E9440112104889A0D2A4C2A4E9C6
:100D9D0044061210487F0F120FE17F01120FE17F01
:090DAD0006120FE17F80020FE144
:10107000A905EF24FE600F1460111460132403709F
:1010800016E9247F800DE924BF8008E924938003BA
:08109000E924D3FF120FE12255
:1010BF008B0F8A108911AB0FAA10A91112095FFFAC
:1010CF00601012101174012511F511E43510F5108F
:0710DF0080E47F0C020FE129
:0A11AC007F01120FE17F80020FE1C6
:1009DB007F04121119752E008F2F7F0512111975B7
:1009EB0021008F227F061211197524008F25750C9B
:0C09FB0000750D03AB2FAA2E7D017F01BB
:060A07008F088B828A8338
:100A0D00E4F50EE5086003ED70077F80120FE180BD
:100A1D0005AF08121070E50D6405450C6005E50E77
:100A2D00B4011C7C277D10AF82AE83120978EF24B0
:100A3D0030F53FE43EF53EAF3F121011750E01E566
:100A4D000D6404450C6005E50EB401277C037DE8BB
:100A5D00AF82AE831209788E2A8F2B7C007D0A120D
:100A6D000978ED2430F53BE43CF53AAF3B1210111B
:100A7D00750E01E50D6403450C6005E50EB4012707
:100A8D007C007D64AF82AE831209788E2A8F2B7C19
:100A9D00007D0A120978ED2430F53DE43CF53CAFBC
:100AAD003D121011750E01E50D6402450C6005E552
:100ABD000EB401277C007D0AAF82AE831209788EB9
:100ACD002A8F2B7C007D0A120978ED2430F52DE458
:100ADD003CF52CAF2D121011750E01E50D6401457D
:100AED000C6005E50EB40119AE83AF827C007D0A62
:100AFD00120978ED2430F532E43CF531AF321210A5
:100B0D0011D3E50D9405E50C6480948040097BFFBD
:070B1D007A1179F91210BFF3
:010B240022AE
:0D110C007DC87C007FC87E001211367F0177
:101119008F80D2B6C2B67F027E0012109F7580FF03
:06112900D2B7AF80C2B78F
:01112F00229D
:0311FF008FFA2242
:031202008FFB223D
:061130007FFA7C007E0046
:10113600C374FF9FFFE49EFE1211FFC374FF9DFF61
:06114600E49CFE0212020F
:10114C0075D98075D840E4F5EA75FAFFF5EB75FBB7
:08115C00FF75DA4275DB422247
:0911C000D292D291C2B4C2902275
:0911C900C292C291D2B4D290226C
:0911D200D292C291C2B4D2902263
:0911DB00C292D291D2B4C290225A
:0911E400C292C291C2B4C2902271
:0611ED001211E4D2912270
:0611F3001211E4D2922269
:0A11B60075880475A88475B008223E
:0300130002119D3A
:0F119D00C0E00527E52770020526C28BD0E0329F
:100E8F00E4F526F527AD07AC061208A57BE57AD069
:100E9F0079AA78401208031208DE8E358F361211A8
:100EAF00B6D293D2941211C0C3E5279536E5269595
:100EBF00355020750C00750D02AB36AA35120A039A
:100ECF00750C00750D02AB27AA267D057F01120A4E
:060EDF000780D50211E4BA
:100F3B00E4F526F527AD07AC061208A57B487AE148
:100F4B00798278401208031208DE8E358F36D293E1
:100F5B00D2941211EDC3E5279536E5269535502031
:100F6B00750C00750D02AB36AA35120A03750C0011
:100F7B00750D02AB27AA267D057F01120A0780D5C6
:030F8B000211E46C
:100F8E00E4F526F527AD07AC061208A57B487AE1F5
:100F9E00798278401208031208DE8E358F36D2938E
:100FAE00D2941211F3C3E5279536E52695355020D8
:100FBE00750C00750D02AB36AA35120A03750C00BE
:100FCE00750D02AB27AA267D057F01120A0780D573
:030FDE000211E419
:03120500C2A7225B
:03120800D2A72248
:100EE5007F06121119EFD39428400B7F05121119B3
:100EF500EFD3942850377F04121119EFD39428406B
:100F05000B7F05121119EFD3942850217F0612117A
:100F150019EFD39428401B7F05121119EFD394289C
:100F250040107F04121119EFD3942840057E007FED
:060F35000122E4FEFF2290
:101164007F02121119EFD3943C40057E007F0122C7
:04117400E4FEFF2274
:101178007F02121119EFC3943C50057E007F0122B3
:04118800E4FEFF2260
:100B25001209DB750C00750D03AB22AA217D067F2A
:100B350001120A07750C00750D03AB25AA247D0B60
:100B45007F01120A07E523FB7A00750C00750D017C
:100B55007D017F02120A07E4F523D3E522941EE501
:100B6500219400400B7523011211C07DFA1211303A
:100B7500C3E52F941EE52E94005016E5237012E56B
:100B850025941EE524940040081211C07DBE121163
:100B950030C3E525941EE52494005018E523701410
:100BA500E52F941EE52E9400400A1211C07DFA7FB0
:100BB500BE121132C3E52F941EE52E9400501BC3BF
:100BC500E525941EE52494005010E523700C1211C0
:100BD500C07DFAFC7FFAFE121136D3E525941EE599
:100BE5002494004011D3E522941EE521940040068B
:100BF5007E007F0180047E007F00D3E52F941EE5F3
:100C05002E94004011D3E522941EE5219400400660
:100C15007C007D0180047C007D00EC4EFEED4F4E96
:090C25007003020B251210982245
:100DB6007F467E00120E8F1210987F2D1E120F3B5B
:100DC6001209DB750C00750D03AB22AA217D067F87
:100DD60001120A07750C00750D03AB25AA247D0BBD
:100DE6007F01120A07E523FB7A00750C00750D01D9
:100DF6007D017F02120A071211DB12110CEFD39448
:100E06001E40BD7F03121119EFC3941E50B27F021C
:0D0E1600121119EFC3941E50A71211E4220F
:100CBA007F467E00120E8F1210987F2D1E120F8E05
:100CCA007F03121119752E008F2F7F0112111975CA
:100CDA0021008F227F021209F1750C00750D03ABFA
:100CEA0022AA217D067F01120A07750C00750D03E1
:100CFA00AB25AA247D0B7F01120A07E523FB7A00A4
:100D0A00750C00750D017D017F02120A071211D2BE
:100D1A0012110CEFD3941E40A77F03121119EFC3CF
:100D2A00941E509C7F02121119EFC3941E50911207
:030D3A0011E4229F
:100E2300120D3D1211AC12114C1209DB750C007539
:100E33000D03AB22AA217D067F01120A07750C0060
:100E4300750D03AB25AA247D0B7F01120A077F02D0
:100E5300121119EFFB7A00750C00750D037D017FEC
:100E630002120A077FE87E0312109F120B2512114C
:100E730064EF4E60131211E41212057FE87E031231
:0C0E8300109F121208020DB6120CBA22C9
:10080000020954EC5D046005E85904700302094ACA
:10081000120915580460F6EC4860F2EC7004FDFE15
:10082000FF22C860DB2481C85009C39860025006CB
:100830000209519850CAF582E9294B4A7005AB82EA
:1008400002094075F0007C1A7880C3EF9BEE9AEDA8
:1008500099400DC3EF9BFFEE9AFEED99FDE842F043
:10086000DC23ACF0D0E0FFD0E0FED0E0FDAB822096
:10087000E7101BEB60BAEC2CFCEF33FFEE33FEED20
:1008800033FD02092CE803F830E705C0F075F000ED
:10089000EF2FFFEE33FEED33FD40B830E7C280AA04
:1008A00075F020800E75F010800575F0087D007ED3
:1008B000007F003392D530D5031209CDEC334010C0
:1008C000EF33FFEE33FEED33FDEC33FCD5F0ED22DC
:0E08D000E5F0247EA2D513CC92E7CDCEFF2218
:1008DE00EDD2E7CD33EC3392D524814006E4FFFE12
:1008EE00FDFC22FCE4CFCECDCC24E0501174FF8071
:1008FE00EDC3CC13CCCD13CDCE13CECF13CF04700E
:07090E00F030D5DE0209CD37
:10091500E9D2E7C933E833F892D5EDD2E7CD33EC28
:0709250033FC5002B2D522A1
:10092C00EC30E7100FBF000C0EBE00080DBD00042C
:10093C000BEB6014A2D5EB13FCED92E7FD2274FFD8
:10094C00FCFDFEFF22E480F8A2D574FF13FC7D8031
:03095C00E480EF45
:03000000020C2EC1
:0C0C2E00787FE4F6D8FD75813F020C755C
:10095F00BB010689828A83E0225002E722BBFE0296
:09096F00E32289828A83E49322C9
:10097800BC000BBE0029EF8DF084FFADF022E4CC63
:10098800F875F008EF2FFFEE33FEEC33FCEE9DEC2C
:10099800984005FCEE9DFE0FD5F0E9E4CEFD22ED72
:1009A800F8F5F0EE8420D21CFEADF075F008EF2FBC
:1009B800FFED33FD4007985006D5F0F222C398FDAD
:0509C8000FD5F0EA224A
:0E09CD00C3E49FFFE49EFEE49DFDE49CFC223B
:100C3A00020E23E493A3F8E493A34003F68001F29F
:100C4A0008DFF48029E493A3F85407240CC8C333BB
:100C5A00C4540F4420C8834004F456800146F6DF8A
:100C6A00E4800B01020408102040809010E6E47E24
:100C7A00019360BCA3FF543F30E509541FFEE4937F
:100C8A00A360010ECF54C025E060A840B8E493A346
:100C9A00FAE493A3F8E493A3C8C582C8CAC583CA71
:100CAA00F0A3C8C582C8CAC583CADFE9DEE780BE29
:01110B0000E3
:00000001FF
