:060BFD004552524F520068
:030C0300010C00E1
:100BA300E4FDFCC3ED9FEC9E5015E4FBFA0BBB0088
:0F0BB300010AEB64354A70F50DBD00010C80E4BA
:010BC2002210
:0D0B2500D2A4C2A4E94408F5A0D2A4C2A441
:100B3200E5A05480FFC2A4C2A6D2A5300113D2A45C
:100B4200EF447FF5A0E5A0640324FF9201C2A480D4
:010B5200EAB8
:010B5300227F
:100BD7008F0C7804EF08800103D8FDF50C540FFF44
:010BE70022EB
:020AC500AE077A
:100AC700E5A05480FD120B32AF06120BD7EF4DF5A0
:100AD700A0C2A5C2A6D2A4C2A4EE540F4DF5A0C2CF
:0E0AE700A5C2A6D2A4C2A47F027E00020BA369
:020AF500AE074A
:100AF700E5A05480FD120BD7AC07120B32EC4DF575
:100B0700A0C2A5D2A6D2A4C2A4EE540F4DF5A0C28E
:0E0B1700A5D2A6D2A4C2A47F027E00020BA328
:1009AA00E5A05480F9C2A6C2A57F287E00120BA337
:1009BA00C2A4E94403F5A0D2A4C2A47F04120BA3E3
:1009CA00E94403F5A0D2A4C2A47F02120BA3E9440E
:1009DA0003F5A0D2A4C2A4120BA3E94402120B2C61
:1009EA00E94402F5A0120B2589A0120B2589A0D291
:1009FA00A4C2A4E94401120B2C89A0D2A4C2A4E97E
:100A0A004406120B2C7F0F120AC57F01120AC57FFA
:090A1A0006120AC57F80020AC51C
:100B5400A905EF24FE600F146011146013240370C0
:100B640016E9247F800DE924BF8008E924938003DB
:080B7400E924D3FF120AC52297
:100B7C008B1D8A1E891FAB1DAA1EA91F120A23FFDB
:100B8C006010120AF57401251FF51FE4351EF51EC1
:070B9C0080E47F0C020AC592
:0A0BF3007F01120AC57F80020AC5C7
:060800008F168B828A8333
:10080600E4F51CE5166003ED70077F80120AC580CB
:1008160005AF16120B54E51B6405451A6005E51C69
:10082600B4011C7C277D10AF82AE83120A3CEF24F4
:1008360030F515E43EF514AF15120AF5751C01E501
:100846001B6404451A6005E51CB401277C037DE89A
:10085600AF82AE83120A3C8E088F097C007D0A1295
:100866000A3CED2430F511E43CF510AF11120AF5FF
:10087600751C01E51B6403451A6005E51CB40127D8
:100886007C007D64AF82AE83120A3C8E088F097CA1
:10089600007D0A120A3CED2430F513E43CF512AF54
:1008A60013120AF5751C01E51B6402451A6005E57D
:1008B6001CB401277C007D0AAF82AE83120A3C8EEF
:1008C600088F097C007D0A120A3CED2430F50BE402
:1008D6003CF50AAF0B120AF5751C01E51B640145D0
:1008E6001A6005E51CB40119AE83AF827C007D0A4F
:1008F600120A3CED2430F50EE43CF50DAF0E120A5B
:10090600F5D3E51B9405E51A6480948040097BFFC6
:070916007A0B79FD120B7C46
:01091D0022B7
:100BC30075A890758920758DFD758840759850C2FC
:040BD30098C2992209
:020C0700AF99A3
:010C090022C8
:03002300020A913D
:100A9100C0E0C0D075D000C000C002C003C004C017
:100AA10005C006C007120C078F0F120AF5C298C2C3
:100AB10099D007D006D005D004D003D002D000D001
:040AC100D0D0E0327F
:0B0BE800120BC31209AA120BF380FECF
:0300000002091ED4
:0C091E00787FE4F6D8FD758120020965A1
:100A2300BB010689828A83E0225002E722BBFE02D1
:090A3300E32289828A83E4932204
:100A3C00BC000BBE0029EF8DF084FFADF022E4CC9E
:100A4C00F875F008EF2FFFEE33FEEC33FCEE9DEC67
:100A5C00984005FCEE9DFE0FD5F0E9E4CEFD22EDAD
:100A6C00F8F5F0EE8420D21CFEADF075F008EF2FF7
:100A7C00FFED33FD4007985006D5F0F222C398FDE8
:050A8C000FD5F0EA2285
:10092A00020BE8E493A3F8E493A34003F68001F2F0
:10093A0008DFF48029E493A3F85407240CC8C333CE
:10094A00C4540F4420C8834004F456800146F6DF9D
:10095A00E4800B0102040810204080900C03E47E1E
:10096A00019360BCA3FF543F30E509541FFEE49392
:10097A00A360010ECF54C025E060A840B8E493A359
:10098A00FAE493A3F8E493A3C8C582C8CAC583CA84
:10099A00F0A3C8C582C8CAC583CADFE9DEE780BE3C
:010C060000ED
:00000001FF
