:060CA1004552524F5200C3
:060C9A0001250001280005
:100C1E00E4FDFCC3ED9FEC9E5015E4FBFA0BBB000C
:0F0C2E00010AEB64354A70F50DBD00010C80E43E
:010C3D002294
:0D0BA000D2A4C2A4E94408F5A0D2A4C2A4C6
:100BAD00E5A05480FFC2A4C2A6D2A5300013D2A4E2
:100BBD00EF447FF5A0E5A0640324FF9200C2A4805A
:010BCD00EA3D
:010BCE002204
:100C6D008F257804EF08800103D8FDF525540FFF7B
:010C7D002254
:020B4000AE07FE
:100B4200E5A05480FD120BADAF06120C6DEF4DF512
:100B5200A0C2A5C2A6D2A4C2A4EE540F4DF5A0C253
:0E0B6200A5C2A6D2A4C2A47F027E00020C1E71
:020B7000AE07CE
:100B7200E5A05480FD120C6DAC07120BADEC4DF5E7
:100B8200A0C2A5D2A6D2A4C2A4EE540F4DF5A0C213
:0E0B9200A5D2A6D2A4C2A47F027E00020C1E31
:100A5900E5A05480F9C2A6C2A57F287E00120C1E0B
:100A6900C2A4E94403F5A0D2A4C2A47F04120C1EB7
:100A7900E94403F5A0D2A4C2A47F02120C1EE944E2
:100A890003F5A0D2A4C2A4120C1EE94402120BA7BA
:100A9900E94402F5A0120BA089A0120BA089A0D2EB
:100AA900A4C2A4E94401120BA789A0D2A4C2A4E953
:100AB9004406120BA77F0F120B407F01120B407FD8
:090AC90006120B407F80020B4075
:100BCF00A905EF24FE600F14601114601324037045
:100BDF0016E9247F800DE924BF8008E92493800360
:080BEF00E924D3FF120B4022A0
:100BF7008B168A178918AB16AA17A918120AD2FFDB
:100C07006010120B7074012518F518E43517F517E5
:070C170080E47F0C020B409A
:0A0C7E007F01120B407F80020B4043
:060800008F0F8B828A833A
:10080600E4F515E50F6003ED70077F80120B40805D
:1008160005AF0F120BCFE514640545136005E5150A
:10082600B4011C7C277D10AF82AE83120AEBEF2445
:1008360030F52EE43EF52DAF2E120B70751501E541
:1008460014640445136005E515B401277C037DE8AF
:10085600AF82AE83120AEB8E218F227C007D0A12B4
:100866000AEBED2430F52AE43CF529AF2A120B7089
:10087600751501E514640345136005E515B40127F4
:100886007C007D64AF82AE83120AEB8E218F227CC0
:10089600007D0A120AEBED2430F52CE43CF52BAF73
:1008A6002C120B70751501E514640245136005E5FD
:1008B60015B401277C007D0AAF82AE83120AEB8E47
:1008C600218F227C007D0A120AEBED2430F524E408
:1008D6003CF523AF24120B70751501E51464014530
:1008E600136005E515B40119AE83AF827C007D0A5D
:1008F600120AEBED2430F527E43CF526AF27120B60
:1009060070D3E5149405E5136480948040097BFF59
:070916007A0C79A1120BF726
:01091D0022B7
:100C56008F80D2B6C2B67F027E00120C1E7580FF50
:060C6600D2B7AF80C2B757
:010C6C002265
:030CA7008FFA229F
:030CAA008FFB229B
:090C8800D292D291C2B4C29022B2
:090C9100C292C291C2B4C29022C9
:100C3E0075D98075D840E4F5EA75FAFFF5EB75FBCA
:080C4E00FF75DA4275DB42225A
:10091E00E4F508F509F50AF50BF50CF50DF50EC223
:10092E00B7C2B6D2A7120A59120C3E120C7E120C86
:10093E00887F2F120CA7120CAA7F03120C56750873
:10094E00008F09E4FF120C56750A008F0B7F0712F9
:10095E000C56750C008F0D751300751403AB09AA98
:10096E00087D017F01120800751300751403AB0B8F
:10097E00AA0A7D057F01120800751300751403ABDA
:10098E000DAA0C7D097F01120800C3E5099432E51A
:10099E000894004014E50B9432E50A9400400AE5F1
:1009AE000D9432E50C94005090120C917FE87E036A
:0E09BE00120C1EC2A77FD07E07120C1ED2A7FD
:0109CC002208
:030000000209CD25
:0C09CD00787FE4F6D8FD75812E020A1434
:100AD200BB010689828A83E0225002E722BBFE0222
:090AE200E32289828A83E4932255
:100AEB00BC000BBE0029EF8DF084FFADF022E4CCEF
:100AFB00F875F008EF2FFFEE33FEEC33FCEE9DECB8
:100B0B00984005FCEE9DFE0FD5F0E9E4CEFD22EDFD
:100B1B00F8F5F0EE8420D21CFEADF075F008EF2F47
:100B2B00FFED33FD4007985006D5F0F222C398FD38
:050B3B000FD5F0EA22D5
:1009D90002091EE493A3F8E493A34003F68001F20D
:1009E90008DFF48029E493A3F85407240CC8C3331F
:1009F900C4540F4420C8834004F456800146F6DFEE
:100A0900E4800B0102040810204080900C9AE47ED7
:100A1900019360BCA3FF543F30E509541FFEE493E2
:100A2900A360010ECF54C025E060A840B8E493A3A9
:100A3900FAE493A3F8E493A3C8C582C8CAC583CAD4
:100A4900F0A3C8C582C8CAC583CADFE9DEE780BE8C
:010CA0000053
:00000001FF
