:060C8C004552524F5200D8
:060C8500010C00010F004C
:100C3300E4FDFCC3ED9FEC9E5015E4FBFA0BBB00F7
:0F0C4300010AEB64354A70F50DBD00010C80E429
:010C5200227F
:0D0BB500D2A4C2A4E94408F5A0D2A4C2A4B1
:100BC200E5A05480FFC2A4C2A6D2A5300013D2A4CD
:100BD200EF447FF5A0E5A0640324FF9200C2A48045
:010BE200EA28
:010BE30022EF
:100C6A008F0C7804EF08800103D8FDF50C540FFFB0
:010C7A002257
:020B5500AE07E9
:100B5700E5A05480FD120BC2AF06120C6AEF4DF5EB
:100B6700A0C2A5C2A6D2A4C2A4EE540F4DF5A0C23E
:0E0B7700A5C2A6D2A4C2A47F027E00020C3347
:020B8500AE07B9
:100B8700E5A05480FD120C6AAC07120BC2EC4DF5C0
:100B9700A0C2A5D2A6D2A4C2A4EE540F4DF5A0C2FE
:0E0BA700A5D2A6D2A4C2A47F027E00020C3307
:100A6E00E5A05480F9C2A6C2A57F287E00120C33E1
:100A7E00C2A4E94403F5A0D2A4C2A47F04120C338D
:100A8E00E94403F5A0D2A4C2A47F02120C33E944B8
:100A9E0003F5A0D2A4C2A4120C33E94402120BBC7B
:100AAE00E94402F5A0120BB589A0120BB589A0D2AC
:100ABE00A4C2A4E94401120BBC89A0D2A4C2A4E929
:100ACE004406120BBC7F0F120B557F01120B557F84
:090ADE0006120B557F80020B5536
:100BE400A905EF24FE600F14601114601324037030
:100BF40016E9247F800DE924BF8008E9249380034B
:080C0400E924D3FF120B552275
:100C0C008B298A2A892BAB29AA2AA92B120AE7FF3E
:100C1C006010120B857401252BF52BE4352AF52A6F
:070C2C0080E47F0C020B5570
:0A0C7B007F01120B557F80020B551C
:060800008F228B828A8327
:10080600E4F528E5226003ED70077F80120B558022
:1008160005AF22120BE4E527640545266005E528A9
:10082600B4011C7C277D10AF82AE83120B00EF242F
:1008360030F515E43EF514AF15120B85752801E564
:1008460027640445266005E528B401277C037DE876
:10085600AF82AE83120B008E088F097C007D0A12D0
:100866000B00ED2430F511E43CF510AF11120B85A9
:10087600752801E527640345266005E528B40127A8
:100886007C007D64AF82AE83120B008E088F097CDC
:10089600007D0A120B00ED2430F513E43CF512AF8F
:1008A60013120B85752801E527640245266005E5C8
:1008B60028B401277C007D0AAF82AE83120B008E1E
:1008C600088F097C007D0A120B00ED2430F50BE43D
:1008D6003CF50AAF0B120B85752801E52764014527
:1008E600266005E528B40119AE83AF827C007D0A37
:1008F600120B00ED2430F50EE43CF50DAF0E120B95
:1009060085D3E5279405E5266480948040097BFF1E
:070916007A0C798C120C0C25
:01091D0022B7
:100C53008F80D2B6C2B67F027E00120C337580FF3E
:060C6300D2B7AF80C2B75A
:010C69002268
:10091E00E4F521C2B7C2B6120A6E120C7B7F011229
:10092E000C53EFFB7A007526007527037D017F01BE
:10093E001208007F03120C53EFFB7A007526007528
:10094E0027037D057F01120800E4FF120C53EFFB15
:10095E007A007526007527037D097F011208007F36
:10096E0007120C53EFFB7A007526007527037D0DD9
:10097E007F011208007F02120C53EFFB7A007526DE
:10098E00007527037D017F021208007F04120C53AD
:10099E00EFFB7A007526007527037D057F0212088E
:1009AE00007F05120C53EFFB7A00752600752703A6
:1009BE007D097F021208007F06120C53EFFB7A00AE
:1009CE007526007527037D0D7F021208007FE87ED5
:0409DE0003020C33D1
:030000000209E210
:0C09E200787FE4F6D8FD75812B020A290D
:100AE700BB010689828A83E0225002E722BBFE020D
:090AF700E32289828A83E4932240
:100B0000BC000BBE0029EF8DF084FFADF022E4CCD9
:100B1000F875F008EF2FFFEE33FEEC33FCEE9DECA2
:100B2000984005FCEE9DFE0FD5F0E9E4CEFD22EDE8
:100B3000F8F5F0EE8420D21CFEADF075F008EF2F32
:100B4000FFED33FD4007985006D5F0F222C398FD23
:050B50000FD5F0EA22C0
:1009EE0002091EE493A3F8E493A34003F68001F2F8
:1009FE0008DFF48029E493A3F85407240CC8C3330A
:100A0E00C4540F4420C8834004F456800146F6DFD8
:100A1E00E4800B0102040810204080900C85E47ED7
:100A2E00019360BCA3FF543F30E509541FFEE493CD
:100A3E00A360010ECF54C025E060A840B8E493A394
:100A4E00FAE493A3F8E493A3C8C582C8CAC583CABF
:100A5E00F0A3C8C582C8CAC583CADFE9DEE780BE77
:010C8B000068
:00000001FF
