:100BB8004552524F5200594F5552204E414D450013
:030BD200010C0013
:100B6F00E4FDFCC3ED9FEC9E5015E4FBFA0BBB00BC
:0F0B7F00010AEB64354A70F50DBD00010C80E4EE
:010B8E002244
:0D0AF100D2A4C2A4E94408F5A0D2A4C2A476
:100AFE00E5A05480FFC2A4C2A6D2A5300013D2A492
:100B0E00EF447FF5A0E5A0640324FF9200C2A48009
:010B1E00EAEC
:010B1F0022B3
:100BA7008F0C7804EF08800103D8FDF50C540FFF74
:010BB700221B
:020A9100AE07AE
:100A9300E5A05480FD120AFEAF06120BA7EF4DF539
:100AA300A0C2A5C2A6D2A4C2A4EE540F4DF5A0C203
:0E0AB300A5C2A6D2A4C2A47F027E00020B6FD1
:020AC100AE077E
:100AC300E5A05480FD120BA7AC07120AFEEC4DF50E
:100AD300A0C2A5D2A6D2A4C2A4EE540F4DF5A0C2C3
:0E0AE300A5D2A6D2A4C2A47F027E00020B6F91
:1009AA00E5A05480F9C2A6C2A57F287E00120B6F6B
:1009BA00C2A4E94403F5A0D2A4C2A47F04120B6F17
:1009CA00E94403F5A0D2A4C2A47F02120B6FE94442
:1009DA0003F5A0D2A4C2A4120B6FE94402120AF8CA
:1009EA00E94402F5A0120AF189A0120AF189A0D2FB
:1009FA00A4C2A4E94401120AF889A0D2A4C2A4E9B3
:100A0A004406120AF87F0F120A917F01120A917F97
:090A1A0006120A917F80020A9184
:100B2000A905EF24FE600F146011146013240370F4
:100B300016E9247F800DE924BF8008E9249380030F
:080B4000E924D3FF120A9122FF
:100B48008B1C8A1D891EAB1CAA1DA91E120A23FF15
:100B58006010120AC17401251EF51EE4351DF51D2D
:070B680080E47F0C020A91FA
:0A0BC8007F01120A917F80020A915A
:060800008F158B828A8334
:10080600E4F51BE5156003ED70077F80120A918001
:1008160005AF15120B20E51A640545196005E51BA1
:10082600B4011C7C277D10AF82AE83120A3CEF24F4
:1008360030F514E43EF513AF14120AC1751B01E539
:100846001A640445196005E51BB401277C037DE89D
:10085600AF82AE83120A3C8E088F097C007D0A1295
:100866000A3CED2430F510E43CF50FAF10120AC136
:10087600751B01E51A640345196005E51BB40127DC
:100886007C007D64AF82AE83120A3C8E088F097CA1
:10089600007D0A120A3CED2430F512E43CF511AF56
:1008A60012120AC1751B01E51A640245196005E5B5
:1008B6001BB401277C007D0AAF82AE83120A3C8EF0
:1008C600088F097C007D0A120A3CED2430F50BE402
:1008D6003CF50AAF0B120AC1751B01E51A64014506
:1008E600196005E51BB40119AE83AF827C007D0A51
:1008F600120A3CED2430F50EE43CF50DAF0E120A5B
:10090600C1D3E51A9405E5196480948040097BFFFC
:070916007A0B79B8120B48BF
:01091D0022B7
:100B8F001209AA120BC87D057F01120B207BFF7A79
:080B9F000B79BE120B4880FE29
:0300000002091ED4
:0C091E00787FE4F6D8FD758120020965A1
:100A2300BB010689828A83E0225002E722BBFE02D1
:090A3300E32289828A83E4932204
:100A3C00BC000BBE0029EF8DF084FFADF022E4CC9E
:100A4C00F875F008EF2FFFEE33FEEC33FCEE9DEC67
:100A5C00984005FCEE9DFE0FD5F0E9E4CEFD22EDAD
:100A6C00F8F5F0EE8420D21CFEADF075F008EF2FF7
:100A7C00FFED33FD4007985006D5F0F222C398FDE8
:050A8C000FD5F0EA2285
:10092A00020B8FE493A3F8E493A34003F68001F249
:10093A0008DFF48029E493A3F85407240CC8C333CE
:10094A00C4540F4420C8834004F456800146F6DF9D
:10095A00E4800B0102040810204080900BD2E47E50
:10096A00019360BCA3FF543F30E509541FFEE49392
:10097A00A360010ECF54C025E060A840B8E493A359
:10098A00FAE493A3F8E493A3C8C582C8CAC583CA84
:10099A00F0A3C8C582C8CAC583CADFE9DEE780BE3C
:010BD500001F
:00000001FF
