:060C5B004552524F520009
:060C5400010C00010F007D
:100BCF00E4FDFCC3ED9FEC9E5015E4FBFA0BBB005C
:0F0BDF00010AEB64354A70F50DBD00010C80E48E
:010BEE0022E4
:0D0B5100D2A4C2A4E94408F5A0D2A4C2A415
:100B5E00E5A05480FFC2A4C2A6D2A5300013D2A431
:100B6E00EF447FF5A0E5A0640324FF9200C2A480A9
:010B7E00EA8C
:010B7F002253
:100C1E008F0C7804EF08800103D8FDF50C540FFFFC
:010C2E0022A3
:020AF100AE074E
:100AF300E5A05480FD120B5EAF06120C1EEF4DF500
:100B0300A0C2A5C2A6D2A4C2A4EE540F4DF5A0C2A2
:0E0B1300A5C2A6D2A4C2A47F027E00020BCF10
:020B2100AE071D
:100B2300E5A05480FD120C1EAC07120B5EEC4DF5D4
:100B3300A0C2A5D2A6D2A4C2A4EE540F4DF5A0C262
:0E0B4300A5D2A6D2A4C2A47F027E00020BCFD0
:1009AA00E5A05480F9C2A6C2A57F287E00120BCF0B
:1009BA00C2A4E94403F5A0D2A4C2A47F04120BCFB7
:1009CA00E94403F5A0D2A4C2A47F02120BCFE944E2
:1009DA0003F5A0D2A4C2A4120BCFE94402120B5809
:1009EA00E94402F5A0120B5189A0120B5189A0D239
:1009FA00A4C2A4E94401120B5889A0D2A4C2A4E952
:100A0A004406120B587F0F120AF17F01120AF17F76
:090A1A0006120AF17F80020AF1C4
:100B8000A905EF24FE600F14601114601324037094
:100B900016E9247F800DE924BF8008E924938003AF
:080BA000E924D3FF120AF1223F
:100BA8008B2B8A2C892DAB2BAA2CA92D120A23FF5B
:100BB8006010120B217401252DF52DE4352CF52C30
:070BC80080E47F0C020AF13A
:0A0C2F007F01120AF17F80020AF132
:060800008F248B828A8325
:10080600E4F52AE5246003ED70077F80120AF18083
:1008160005AF24120B80E529640545286005E52A05
:10082600B4011C7C277D10AF82AE83120A3CEF24F4
:1008360030F515E43EF514AF15120B21752A01E5C6
:1008460029640445286005E52AB401277C037DE870
:10085600AF82AE83120A3C8E088F097C007D0A1295
:100866000A3CED2430F511E43CF510AF11120B21D2
:10087600752A01E529640345286005E52AB40127A0
:100886007C007D64AF82AE83120A3C8E088F097CA1
:10089600007D0A120A3CED2430F513E43CF512AF54
:1008A60013120B21752A01E529640245286005E526
:1008B6002AB401277C007D0AAF82AE83120A3C8EE1
:1008C600088F097C007D0A120A3CED2430F50BE402
:1008D6003CF50AAF0B120B21752A01E52964014587
:1008E600286005E52AB40119AE83AF827C007D0A33
:1008F600120A3CED2430F50EE43CF50DAF0E120B5A
:1009060021D3E5299405E5286480948040097BFF7E
:070916007A0C795B120BA8BB
:01091D0022B7
:100C07008F80D2B6C2B67F027E00120BCF7580FFEF
:060C1700D2B7AF80C2B7A6
:010C1D0022B4
:030C61008FFA22E5
:030C64008FFB22E1
:090C3900D292D291C2B4C2902201
:090C4200C292D291C2B4C2902208
:090C4B00C292C291C2B4C290220F
:100BEF0075D98075D840E4F5EA75FAFFF5EB75FB1A
:080BFF00FF75DA4275DB4222AA
:100A9100E4F521F522F523C2B7C2B6D2A71209AAFD
:100AA100120BEF120C2F120C397F2F120C61120C4A
:100AB100647F02120C077521008F227528007529A9
:100AC10003AB22AA217D017F01120800D3E5229404
:100AD1001EE521940040DA120C4BC2A77FE87E0389
:0F0AE100120BCFD2A7120C427FC47E09120BCF8B
:010AF00022E3
:0300000002091ED4
:0C091E00787FE4F6D8FD75812D02096594
:100A2300BB010689828A83E0225002E722BBFE02D1
:090A3300E32289828A83E4932204
:100A3C00BC000BBE0029EF8DF084FFADF022E4CC9E
:100A4C00F875F008EF2FFFEE33FEEC33FCEE9DEC67
:100A5C00984005FCEE9DFE0FD5F0E9E4CEFD22EDAD
:100A6C00F8F5F0EE8420D21CFEADF075F008EF2FF7
:100A7C00FFED33FD4007985006D5F0F222C398FDE8
:050A8C000FD5F0EA2285
:10092A00020A91E493A3F8E493A34003F68001F248
:10093A0008DFF48029E493A3F85407240CC8C333CE
:10094A00C4540F4420C8834004F456800146F6DF9D
:10095A00E4800B0102040810204080900C54E47ECD
:10096A00019360BCA3FF543F30E509541FFEE49392
:10097A00A360010ECF54C025E060A840B8E493A359
:10098A00FAE493A3F8E493A3C8C582C8CAC583CA84
:10099A00F0A3C8C582C8CAC583CADFE9DEE780BE3C
:010C5A000099
:00000001FF
