:100B0A004552524F52004C4344206F7065726174D3
:100B1A00696F6E00466972656269726420560045A3
:100B2A002D79616E74726100496E697469616C2015
:100B3A006261747465727900566F6C746167653DA1
:0F0B4A000046696E616C20626174746572790097
:0C0D0C00010D00011100010800011000A1
:040CA6007FE87E0362
:100CAA00E4FDFCC3ED9FEC9E5015E4FBFA0BBB0080
:0F0CBA00010AEB64354A70F50DBD00010C80E4B2
:010CC9002208
:0D0C2200D2A4C2A4E94408F5A0D2A4C2A443
:100C2F00E5A05480FFC2A4C2A6D2A5300013D2A45F
:100C3F00EF447FF5A0E5A0640324FF9200C2A480D7
:010C4F00EABA
:010C50002281
:100CFB008F0D7804EF08800103D8FDF50D540FFF1D
:010D0B0022C5
:020B9200AE07AC
:100B9400E5A05480FD120C2FAF06120CFBEF4DF5AF
:100BA400A0C2A5C2A6D2A4C2A4EE540F4DF5A0C201
:0E0BB400A5C2A6D2A4C2A47F027E00020CAA93
:020BC200AE077C
:100BC400E5A05480FD120CFBAC07120C2FEC4DF584
:100BD400A0C2A5D2A6D2A4C2A4EE540F4DF5A0C2C1
:0E0BE400A5D2A6D2A4C2A47F027E00020CAA53
:1009B700E5A05480F9C2A6C2A57F287E00120CAA22
:1009C700C2A4E94403F5A0D2A4C2A47F04120CAACE
:1009D700E94403F5A0D2A4C2A47F02120CAAE944F9
:1009E70003F5A0D2A4C2A4120CAAE94402120C294E
:1009F700E94402F5A0120C2289A0120C2289A0D288
:100A0700A4C2A4E94401120C2989A0D2A4C2A4E972
:100A17004406120C297F0F120B927F01120B927F53
:090A270006120B927F80020B9273
:100C7E00A905EF24FE600F14601114601324037095
:100C8E0016E9247F800DE924BF8008E924938003B0
:080C9E00E924D3FF120B92229E
:060C51007BFF7A0B7942E3
:100C57008B2B8A2C892DAB2BAA2CA92D120A30FF9E
:100C67006010120BC27401252DF52DE4352CF52CDF
:070C770080E47F0C020B92E8
:0A0D19007F01120B927F80020B9203
:0D080000FB7A007528007529037D0A7F0230
:06080D008F248B828A8318
:10081300E4F52AE5246003ED70077F80120B9280D4
:1008230005AF24120C7EE529640545286005E52AF9
:10083300B4011C7C277D10AF82AE83120A49EF24DA
:1008430030F517E43EF516AF17120BC2752A01E512
:1008530029640445286005E52AB401277C037DE863
:10086300AF82AE83120A498E098F0A7C007D0A1279
:100873000A49ED2430F513E43CF512AF13120BC211
:10088300752A01E529640345286005E52AB4012793
:100893007C007D64AF82AE83120A498E098F0A7C85
:1008A300007D0A120A49ED2430F515E43CF514AF36
:1008B30015120BC2752A01E529640245286005E576
:1008C3002AB401277C007D0AAF82AE83120A498EC7
:1008D300098F0A7C007D0A120A49ED2430F50CE4E5
:1008E3003CF50BAF0C120BC2752A01E529640145D7
:1008F300286005E52AB40119AE83AF827C007D0A26
:10090300120A49ED2430F50FE43CF50EAF0F120B3C
:10091300C2D3E5299405E5286480948040097BFFD0
:070923007A0B790A120C5750
:01092A0022AA
:100CE4008F80D2B6C2B67F027E00120CAA7580FF36
:060CF400D2B7AF80C2B7C9
:010CFA0022D7
:090D2300D292D291C2B4C2902216
:090D2C00C292C291D2B4D290220D
:090D3500D292C291C2B4D2902204
:090D3E00C292D291D2B4C29022FB
:090D4700C292C291C2B4C2902212
:100CCA00E511C394035012C2A7120CA6D2A77FF44F
:0A0CDA007E01120CAA051180E7222A
:100B5900120D197BFF7A0B7910120C57120CA61281
:100B69000D197D047F01120C7E7BFF7A0B791E1211
:100B79000C577D057F02120C7E7BFF7A0B792912B7
:090B89000C577FD07E07020CAA74
:100BF200D293D294120D237FD07E07120CAA120D2B
:100C020047120D2C120CA6120D47120D3E7FB87E14
:100C12000B120CAA120D47120D35120CAA020D4727
:100A9E00E4F521F522F523C2B7C2B67F01120CE4AC
:100AAE008F211209B7120D197D017F01120C7E7B69
:100ABE00FF7A0B7932120C577D017F02120C7E12D7
:100ACE000C51E5211208007FC47E09120CAA120BEC
:100ADE00F27F01120CE48F22120D197D017F01129B
:100AEE000C7E7BFF7A0B794B120C577D017F021225
:0C0AFE000C7E120C51E52212080080FE54
:0300000002092BC7
:0C092B00787FE4F6D8FD75812D0209727A
:100A3000BB010689828A83E0225002E722BBFE02C4
:090A4000E32289828A83E49322F7
:100A4900BC000BBE0029EF8DF084FFADF022E4CC91
:100A5900F875F008EF2FFFEE33FEEC33FCEE9DEC5A
:100A6900984005FCEE9DFE0FD5F0E9E4CEFD22EDA0
:100A7900F8F5F0EE8420D21CFEADF075F008EF2FEA
:100A8900FFED33FD4007985006D5F0F222C398FDDB
:050A99000FD5F0EA2278
:10093700020A9EE493A3F8E493A34003F68001F22E
:1009470008DFF48029E493A3F85407240CC8C333C1
:10095700C4540F4420C8834004F456800146F6DF90
:10096700E4800B0102040810204080900D0CE47E07
:10097700019360BCA3FF543F30E509541FFEE49385
:10098700A360010ECF54C025E060A840B8E493A34C
:10099700FAE493A3F8E493A3C8C582C8CAC583CA77
:1009A700F0A3C8C582C8CAC583CADFE9DEE780BE2F
:010D180000DA
:00000001FF
