:060D92004552524F5200D1
:030D9800010C004B
:100D5700E4FDFCC3ED9FEC9E5015E4FBFA0BBB00D2
:0F0D6700010AEB64354A70F50DBD00010C80E404
:010D7600225A
:0D0B7100D2A4C2A4E94408F5A0D2A4C2A4F5
:100B7E00E5A05480FFC2A4C2A6D2A5300013D2A411
:100B8E00EF447FF5A0E5A0640324FF9200C2A48089
:010B9E00EA6C
:010B9F002233
:100D77008F0C7804EF08800103D8FDF50C540FFFA2
:010D87002249
:020B1100AE072D
:100B1300E5A05480FD120B7EAF06120D77EF4DF565
:100B2300A0C2A5C2A6D2A4C2A4EE540F4DF5A0C282
:0E0B3300A5C2A6D2A4C2A47F027E00020D5766
:020B4100AE07FD
:100B4300E5A05480FD120D77AC07120B7EEC4DF53A
:100B5300A0C2A5D2A6D2A4C2A4EE540F4DF5A0C242
:0E0B6300A5D2A6D2A4C2A47F027E00020D5726
:100A2A00E5A05480F9C2A6C2A57F287E00120D5700
:100A3A00C2A4E94403F5A0D2A4C2A47F04120D57AC
:100A4A00E94403F5A0D2A4C2A47F02120D57E944D7
:100A5A0003F5A0D2A4C2A4120D57E94402120B78DE
:100A6A00E94402F5A0120B7189A0120B7189A0D278
:100A7A00A4C2A4E94401120B7889A0D2A4C2A4E9B1
:100A8A004406120B787F0F120B117F01120B117F94
:090A9A0006120B117F80020B1102
:100D0800A905EF24FE600F1460111460132403700A
:100D180016E9247F800DE924BF8008E92493800325
:080D2800E924D3FF120B112294
:100D30008B1C8A1D891EAB1CAA1DA91E120AA3FFAB
:100D40006010120B417401251EF51EE4351DF51DC2
:070D500080E47F0C020B118F
:0A0D88007F01120B117F80020B1196
:060800008F158B828A8334
:10080600E4F51BE5156003ED70077F80120B118080
:1008160005AF15120D08E51A640545196005E51BB7
:10082600B4011C7C277D10AF82AE83120ABCEF2474
:1008360030F514E43EF513AF14120B41751B01E5B8
:100846001A640445196005E51BB401277C037DE89D
:10085600AF82AE83120ABC8E088F097C007D0A1215
:100866000ABCED2430F510E43CF50FAF10120B4135
:10087600751B01E51A640345196005E51BB40127DC
:100886007C007D64AF82AE83120ABC8E088F097C21
:10089600007D0A120ABCED2430F512E43CF511AFD6
:1008A60012120B41751B01E51A640245196005E534
:1008B6001BB401277C007D0AAF82AE83120ABC8E70
:1008C600088F097C007D0A120ABCED2430F50BE482
:1008D6003CF50AAF0B120B41751B01E51A64014585
:1008E600196005E51BB40119AE83AF827C007D0A51
:1008F600120ABCED2430F50EE43CF50DAF0E120BDA
:1009060041D3E51A9405E5196480948040097BFF7C
:070916007A0D7992120D30F9
:01091D0022B7
:100BA0007F40120B117F0A120B417F15120B417F00
:100BB00015120B417F0A120B417F04120B41E4FF17
:0D0BC000120B41E4FF120B41E4FF020B4158
:100BCD007F48120B11E4FF120B417F0A120B41E417
:100BDD00FF120B417F04120B417F11120B417F0E4F
:0D0BED00120B41E4FF120B41E4FF020B412B
:100BFA007F50120B11E4FF120B417F0A120B41E4E2
:100C0A00FF120B417F04120B41E4FF120B417F0ECE
:0D0C1A00120B417F11120B41E4FF020B4150
:100C27007F58120B117F01120B417F03120B417F7B
:100C370005120B417F09120B417F09120B417F0BF4
:0D0C4700120B417F1B120B417F1B020B4162
:100C54007F60120B11E4FF120B417F0A120B41E477
:100C6400FF120B417F1F120B417F11120B417F0EAC
:0D0C7400120B41E4FF120B41E4FF020B41A3
:100C81007F68120B117F0A120B41E4FF120B417FA7
:100C910004120B41E4FF120B417F0E120B417F1135
:0D0CA100120B417F11120B417F0E020B411F
:100CAE007F70120B11E4FF120B417F11120B417F6B
:100CBE000A120B417F11120B417F04120B41E4FF0C
:0D0CCE00120B417F0E120B417F11020B41F2
:100CDB007F78120B11E4FF120B417F04120B417F43
:100CEB000A120B417F11120B417F0A120B417F0439
:0D0CFB00120B41E4FF120B41E4FF020B411C
:1009AA00120A2A120D88120BA07D017F01120D086E
:1009BA00E4FF120B41120BCD7D037F01120D087F5C
:1009CA0001120B41120BFA7D057F01120D087F02FD
:1009DA00120B41120C277D077F01120D087F0312AB
:1009EA000B41120C547D027F02120D087F04120B78
:1009FA0041120C817D047F02120D087F05120B4102
:100A0A00120CAE7D067F02120D087F06120B4112F0
:100A1A000CDB7D087F02120D087F07120B4180FE56
:0300000002091ED4
:0C091E00787FE4F6D8FD758120020965A1
:100AA300BB010689828A83E0225002E722BBFE0251
:090AB300E32289828A83E4932284
:100ABC00BC000BBE0029EF8DF084FFADF022E4CC1E
:100ACC00F875F008EF2FFFEE33FEEC33FCEE9DECE7
:100ADC00984005FCEE9DFE0FD5F0E9E4CEFD22ED2D
:100AEC00F8F5F0EE8420D21CFEADF075F008EF2F77
:100AFC00FFED33FD4007985006D5F0F222C398FD68
:050B0C000FD5F0EA2204
:10092A000209AAE493A3F8E493A34003F68001F230
:10093A0008DFF48029E493A3F85407240CC8C333CE
:10094A00C4540F4420C8834004F456800146F6DF9D
:10095A00E4800B0102040810204080900D98E47E88
:10096A00019360BCA3FF543F30E509541FFEE49392
:10097A00A360010ECF54C025E060A840B8E493A359
:10098A00FAE493A3F8E493A3C8C582C8CAC583CA84
:10099A00F0A3C8C582C8CAC583CADFE9DEE780BE3C
:010D9B000057
:00000001FF
