:060C62004552524F520002
:030C6800010C007C
:100BD900E4FDFCC3ED9FEC9E5015E4FBFA0BBB0052
:0F0BE900010AEB64354A70F50DBD00010C80E484
:010BF80022DA
:0D0B5B00D2A4C2A4E94408F5A0D2A4C2A40B
:100B6800E5A05480FFC2A4C2A6D2A5300113D2A426
:100B7800EF447FF5A0E5A0640324FF9201C2A4809E
:010B8800EA82
:010B89002249
:100C0D008F0C7804EF08800103D8FDF50C540FFF0D
:010C1D0022B4
:020AFB00AE0744
:100AFD00E5A05480FD120B68AF06120C0DEF4DF5FD
:100B0D00A0C2A5C2A6D2A4C2A4EE540F4DF5A0C298
:0E0B1D00A5C2A6D2A4C2A47F027E00020BD9FC
:020B2B00AE0713
:100B2D00E5A05480FD120C0DAC07120B68EC4DF5D1
:100B3D00A0C2A5D2A6D2A4C2A4EE540F4DF5A0C258
:0E0B4D00A5D2A6D2A4C2A47F027E00020BD9BC
:1009AA00E5A05480F9C2A6C2A57F287E00120BD901
:1009BA00C2A4E94403F5A0D2A4C2A47F04120BD9AD
:1009CA00E94403F5A0D2A4C2A47F02120BD9E944D8
:1009DA0003F5A0D2A4C2A4120BD9E94402120B62F5
:1009EA00E94402F5A0120B5B89A0120B5B89A0D225
:1009FA00A4C2A4E94401120B6289A0D2A4C2A4E948
:100A0A004406120B627F0F120AFB7F01120AFB7F58
:090A1A0006120AFB7F80020AFBB0
:100B8A00A905EF24FE600F1460111460132403708A
:100B9A0016E9247F800DE924BF8008E924938003A5
:080BAA00E924D3FF120AFB222B
:100BB2008B1D8A1E891FAB1DAA1EA91F120A23FFA5
:100BC2006010120B2B7401251FF51FE4351EF51E54
:070BD20080E47F0C020AFB26
:0A0C2B007F01120AFB7F80020AFB22
:060800008F168B828A8333
:10080600E4F51CE5166003ED70077F80120AFB8095
:1008160005AF16120B8AE51B6405451A6005E51C33
:10082600B4011C7C277D10AF82AE83120A3CEF24F4
:1008360030F515E43EF514AF15120B2B751C01E5CA
:100846001B6404451A6005E51CB401277C037DE89A
:10085600AF82AE83120A3C8E088F097C007D0A1295
:100866000A3CED2430F511E43CF510AF11120B2BC8
:10087600751C01E51B6403451A6005E51CB40127D8
:100886007C007D64AF82AE83120A3C8E088F097CA1
:10089600007D0A120A3CED2430F513E43CF512AF54
:1008A60013120B2B751C01E51B6402451A6005E546
:1008B6001CB401277C007D0AAF82AE83120A3C8EEF
:1008C600088F097C007D0A120A3CED2430F50BE402
:1008D6003CF50AAF0B120B2B751C01E51B64014599
:1008E6001A6005E51CB40119AE83AF827C007D0A4F
:1008F600120A3CED2430F50EE43CF50DAF0E120B5A
:100906002BD3E51B9405E51A6480948040097BFF90
:070916007A0C7962120BB2AA
:01091D0022B7
:100BF90075A890758920758DFD758840759850C2C6
:040C090098C29922D2
:020C6C00AF993E
:010C6E002263
:090C3500D292D291C2B4C2902205
:090C3E00C292C291D2B4D29022FC
:090C4700D292C291C2B4D29022F3
:090C5000C292D291D2B4C29022EA
:090C5900C292C291C2B4C2902201
:03002300020A913D
:100A9100C0E0C0D075D000C000C002C003C004C017
:100AA10005C006C007120C6C8F0F120B2BC298C227
:100AB10099E50FB43802C2A7E50FB43902D2A7E510
:100AC1000FB43003120C35E50FB43103120C3EE5BF
:100AD1000FB43203120C50E50FB43303120C47E587
:100AE1000FB43403120C59D007D006D005D004D06E
:0A0AF10003D002D000D0D0D0E032D4
:0D0C1E00D2A7120BF91209AA120C2B80FEAE
:0300000002091ED4
:0C091E00787FE4F6D8FD758120020965A1
:100A2300BB010689828A83E0225002E722BBFE02D1
:090A3300E32289828A83E4932204
:100A3C00BC000BBE0029EF8DF084FFADF022E4CC9E
:100A4C00F875F008EF2FFFEE33FEEC33FCEE9DEC67
:100A5C00984005FCEE9DFE0FD5F0E9E4CEFD22EDAD
:100A6C00F8F5F0EE8420D21CFEADF075F008EF2FF7
:100A7C00FFED33FD4007985006D5F0F222C398FDE8
:050A8C000FD5F0EA2285
:10092A00020C1EE493A3F8E493A34003F68001F2B9
:10093A0008DFF48029E493A3F85407240CC8C333CE
:10094A00C4540F4420C8834004F456800146F6DF9D
:10095A00E4800B0102040810204080900C68E47EB9
:10096A00019360BCA3FF543F30E509541FFEE49392
:10097A00A360010ECF54C025E060A840B8E493A359
:10098A00FAE493A3F8E493A3C8C582C8CAC583CA84
:10099A00F0A3C8C582C8CAC583CADFE9DEE780BE3C
:010C6B000088
:00000001FF
