:060C51004552524F520013
:060C4A00010C00010F0087
:100BCE00E4FDFCC3ED9FEC9E5015E4FBFA0BBB005D
:0F0BDE00010AEB64354A70F50DBD00010C80E48F
:010BED0022E5
:0D0B5000D2A4C2A4E94408F5A0D2A4C2A416
:100B5D00E5A05480FFC2A4C2A6D2A5300013D2A432
:100B6D00EF447FF5A0E5A0640324FF9200C2A480AA
:010B7D00EA8D
:010B7E002254
:100C1D008F0C7804EF08800103D8FDF50C540FFFFD
:010C2D0022A4
:020AF000AE074F
:100AF200E5A05480FD120B5DAF06120C1DEF4DF503
:100B0200A0C2A5C2A6D2A4C2A4EE540F4DF5A0C2A3
:0E0B1200A5C2A6D2A4C2A47F027E00020BCE12
:020B2000AE071E
:100B2200E5A05480FD120C1DAC07120B5DEC4DF5D7
:100B3200A0C2A5D2A6D2A4C2A4EE540F4DF5A0C263
:0E0B4200A5D2A6D2A4C2A47F027E00020BCED2
:1009AA00E5A05480F9C2A6C2A57F287E00120BCE0C
:1009BA00C2A4E94403F5A0D2A4C2A47F04120BCEB8
:1009CA00E94403F5A0D2A4C2A47F02120BCEE944E3
:1009DA0003F5A0D2A4C2A4120BCEE94402120B570B
:1009EA00E94402F5A0120B5089A0120B5089A0D23B
:1009FA00A4C2A4E94401120B5789A0D2A4C2A4E953
:100A0A004406120B577F0F120AF07F01120AF07F79
:090A1A0006120AF07F80020AF0C6
:100B7F00A905EF24FE600F14601114601324037095
:100B8F0016E9247F800DE924BF8008E924938003B0
:080B9F00E924D3FF120AF02241
:100BA7008B2B8A2C892DAB2BAA2CA92D120A23FF5C
:100BB7006010120B207401252DF52DE4352CF52C32
:070BC70080E47F0C020AF03C
:0A0C2E007F01120AF07F80020AF035
:060800008F248B828A8325
:10080600E4F52AE5246003ED70077F80120AF08084
:1008160005AF24120B7FE529640545286005E52A06
:10082600B4011C7C277D10AF82AE83120A3CEF24F4
:1008360030F515E43EF514AF15120B20752A01E5C7
:1008460029640445286005E52AB401277C037DE870
:10085600AF82AE83120A3C8E088F097C007D0A1295
:100866000A3CED2430F511E43CF510AF11120B20D3
:10087600752A01E529640345286005E52AB40127A0
:100886007C007D64AF82AE83120A3C8E088F097CA1
:10089600007D0A120A3CED2430F513E43CF512AF54
:1008A60013120B20752A01E529640245286005E527
:1008B6002AB401277C007D0AAF82AE83120A3C8EE1
:1008C600088F097C007D0A120A3CED2430F50BE402
:1008D6003CF50AAF0B120B20752A01E52964014588
:1008E600286005E52AB40119AE83AF827C007D0A33
:1008F600120A3CED2430F50EE43CF50DAF0E120B5A
:1009060020D3E5299405E5286480948040097BFF7F
:070916007A0C7951120BA7C6
:01091D0022B7
:100C06008F80D2B6C2B67F027E00120BCE7580FFF1
:060C1600D2B7AF80C2B7A7
:010C1C0022B5
:030C57008FFA22EF
:030C5A008FFB22EB
:090C3800D292D291C2B4C2902202
:090C4100C292C291C2B4C2902219
:100BEE0075D98075D840E4F5EA75FAFFF5EB75FB1B
:080BFE00FF75DA4275DB4222AB
:100A9100E4F521F522F523C2B7C2B6D2A71209AAFD
:100AA100120BEE120C2E120C387F2F120C577F18DE
:100AB100120C5A7F02120C067521008F2275280034
:100AC100752903AB22AA217D017F01120800D3E51C
:100AD10022941EE521940040DA120C417FE87E0346
:0E0AE100120BCEC2A77FD07E07120BCED2A77B
:010AEF0022E4
:0300000002091ED4
:0C091E00787FE4F6D8FD75812D02096594
:100A2300BB010689828A83E0225002E722BBFE02D1
:090A3300E32289828A83E4932204
:100A3C00BC000BBE0029EF8DF084FFADF022E4CC9E
:100A4C00F875F008EF2FFFEE33FEEC33FCEE9DEC67
:100A5C00984005FCEE9DFE0FD5F0E9E4CEFD22EDAD
:100A6C00F8F5F0EE8420D21CFEADF075F008EF2FF7
:100A7C00FFED33FD4007985006D5F0F222C398FDE8
:050A8C000FD5F0EA2285
:10092A00020A91E493A3F8E493A34003F68001F248
:10093A0008DFF48029E493A3F85407240CC8C333CE
:10094A00C4540F4420C8834004F456800146F6DF9D
:10095A00E4800B0102040810204080900C4AE47ED7
:10096A00019360BCA3FF543F30E509541FFEE49392
:10097A00A360010ECF54C025E060A840B8E493A359
:10098A00FAE493A3F8E493A3C8C582C8CAC583CA84
:10099A00F0A3C8C582C8CAC583CADFE9DEE780BE3C
:010C500000A3
:00000001FF
