:060CAD004552524F5200B7
:060CA600012500012800F9
:100C2100E4FDFCC3ED9FEC9E5015E4FBFA0BBB0009
:0F0C3100010AEB64354A70F50DBD00010C80E43B
:010C40002291
:0D0BA300D2A4C2A4E94408F5A0D2A4C2A4C3
:100BB000E5A05480FFC2A4C2A6D2A5300013D2A4DF
:100BC000EF447FF5A0E5A0640324FF9200C2A48057
:010BD000EA3A
:010BD1002201
:100C70008F257804EF08800103D8FDF525540FFF78
:010C80002251
:020B4300AE07FB
:100B4500E5A05480FD120BB0AF06120C70EF4DF509
:100B5500A0C2A5C2A6D2A4C2A4EE540F4DF5A0C250
:0E0B6500A5C2A6D2A4C2A47F027E00020C216B
:020B7300AE07CB
:100B7500E5A05480FD120C70AC07120BB0EC4DF5DE
:100B8500A0C2A5D2A6D2A4C2A4EE540F4DF5A0C210
:0E0B9500A5D2A6D2A4C2A47F027E00020C212B
:100A5C00E5A05480F9C2A6C2A57F287E00120C2105
:100A6C00C2A4E94403F5A0D2A4C2A47F04120C21B1
:100A7C00E94403F5A0D2A4C2A47F02120C21E944DC
:100A8C0003F5A0D2A4C2A4120C21E94402120BAAB1
:100A9C00E94402F5A0120BA389A0120BA389A0D2E2
:100AAC00A4C2A4E94401120BAA89A0D2A4C2A4E94D
:100ABC004406120BAA7F0F120B437F01120B437FCC
:090ACC0006120B437F80020B436C
:100BD200A905EF24FE600F14601114601324037042
:100BE20016E9247F800DE924BF8008E9249380035D
:080BF200E924D3FF120B43229A
:100BFA008B168A178918AB16AA17A918120AD5FFD5
:100C0A006010120B7374012518F518E43517F517DF
:070C1A0080E47F0C020B4394
:0A0C81007F01120B437F80020B433A
:060800008F0F8B828A833A
:10080600E4F515E50F6003ED70077F80120B43805A
:1008160005AF0F120BD2E514640545136005E51507
:10082600B4011C7C277D10AF82AE83120AEEEF2442
:1008360030F52EE43EF52DAF2E120B73751501E53E
:1008460014640445136005E515B401277C037DE8AF
:10085600AF82AE83120AEE8E218F227C007D0A12B1
:100866000AEEED2430F52AE43CF529AF2A120B7383
:10087600751501E514640345136005E515B40127F4
:100886007C007D64AF82AE83120AEE8E218F227CBD
:10089600007D0A120AEEED2430F52CE43CF52BAF70
:1008A6002C120B73751501E514640245136005E5FA
:1008B60015B401277C007D0AAF82AE83120AEE8E44
:1008C600218F227C007D0A120AEEED2430F524E405
:1008D6003CF523AF24120B73751501E5146401452D
:1008E600136005E515B40119AE83AF827C007D0A5D
:1008F600120AEEED2430F527E43CF526AF27120B5D
:1009060073D3E5149405E5136480948040097BFF56
:070916007A0C79AD120BFA17
:01091D0022B7
:100C59008F80D2B6C2B67F027E00120C217580FF4A
:060C6900D2B7AF80C2B754
:010C6F002262
:030CB3008FFA2293
:030CB6008FFB228F
:090C8B00D292D291C2B4C29022AF
:090C9400C292D291C2B4C29022B6
:090C9D00C292C291C2B4C29022BD
:100C410075D98075D840E4F5EA75FAFFF5EB75FBC7
:080C5100FF75DA4275DB422257
:10091E00E4F508F509F50AF50BF50CF50DF50EC223
:10092E00B7C2B6D2A7120A5C120C41120C81120C7D
:10093E008B7F2F120CB3120CB67F03120C59750855
:10094E00008F09E4FF120C59750A008F0B7F0712F6
:10095E000C59750C008F0D751300751403AB09AA95
:10096E00087D017F01120800751300751403AB0B8F
:10097E00AA0A7D057F01120800751300751403ABDA
:10098E000DAA0C7D097F01120800C3E5099432E51A
:10099E000894004014E50B9432E50A9400400AE5F1
:1009AE000D9432E50C94005090120C9DC2A77FE876
:1009BE007E03120C21D2A7120C947FC47E09120C56
:0109CE002107
:0109CF002205
:030000000209D022
:0C09D000787FE4F6D8FD75812E020A172E
:100AD500BB010689828A83E0225002E722BBFE021F
:090AE500E32289828A83E4932252
:100AEE00BC000BBE0029EF8DF084FFADF022E4CCEC
:100AFE00F875F008EF2FFFEE33FEEC33FCEE9DECB5
:100B0E00984005FCEE9DFE0FD5F0E9E4CEFD22EDFA
:100B1E00F8F5F0EE8420D21CFEADF075F008EF2F44
:100B2E00FFED33FD4007985006D5F0F222C398FD35
:050B3E000FD5F0EA22D2
:1009DC0002091EE493A3F8E493A34003F68001F20A
:1009EC0008DFF48029E493A3F85407240CC8C3331C
:1009FC00C4540F4420C8834004F456800146F6DFEB
:100A0C00E4800B0102040810204080900CA6E47EC8
:100A1C00019360BCA3FF543F30E509541FFEE493DF
:100A2C00A360010ECF54C025E060A840B8E493A3A6
:100A3C00FAE493A3F8E493A3C8C582C8CAC583CAD1
:100A4C00F0A3C8C582C8CAC583CADFE9DEE780BE89
:010CAC000047
:00000001FF
