:060C87004552524F5200DD
:060C8000010C00010F0051
:100C2E00E4FDFCC3ED9FEC9E5015E4FBFA0BBB00FC
:0F0C3E00010AEB64354A70F50DBD00010C80E42E
:010C4D002284
:0D0BB000D2A4C2A4E94408F5A0D2A4C2A4B6
:100BBD00E5A05480FFC2A4C2A6D2A5300013D2A4D2
:100BCD00EF447FF5A0E5A0640324FF9200C2A4804A
:010BDD00EA2D
:010BDE0022F4
:100C65008F0C7804EF08800103D8FDF50C540FFFB5
:010C7500225C
:020B5000AE07EE
:100B5200E5A05480FD120BBDAF06120C65EF4DF5FA
:100B6200A0C2A5C2A6D2A4C2A4EE540F4DF5A0C243
:0E0B7200A5C2A6D2A4C2A47F027E00020C2E51
:020B8000AE07BE
:100B8200E5A05480FD120C65AC07120BBDEC4DF5CF
:100B9200A0C2A5D2A6D2A4C2A4EE540F4DF5A0C203
:0E0BA200A5D2A6D2A4C2A47F027E00020C2E11
:100A6900E5A05480F9C2A6C2A57F287E00120C2EEB
:100A7900C2A4E94403F5A0D2A4C2A47F04120C2E97
:100A8900E94403F5A0D2A4C2A47F02120C2EE944C2
:100A990003F5A0D2A4C2A4120C2EE94402120BB78A
:100AA900E94402F5A0120BB089A0120BB089A0D2BB
:100AB900A4C2A4E94401120BB789A0D2A4C2A4E933
:100AC9004406120BB77F0F120B507F01120B507F98
:090AD90006120B507F80020B5045
:100BDF00A905EF24FE600F14601114601324037035
:100BEF0016E9247F800DE924BF8008E92493800350
:080BFF00E924D3FF120B502280
:100C07008B298A2A892BAB29AA2AA92B120AE2FF48
:100C17006010120B807401252BF52BE4352AF52A79
:070C270080E47F0C020B507A
:0A0C76007F01120B507F80020B502B
:060800008F228B828A8327
:10080600E4F528E5226003ED70077F80120B508027
:1008160005AF22120BDFE527640545266005E528AE
:10082600B4011C7C277D10AF82AE83120AFBEF2435
:1008360030F515E43EF514AF15120B80752801E569
:1008460027640445266005E528B401277C037DE876
:10085600AF82AE83120AFB8E088F097C007D0A12D6
:100866000AFBED2430F511E43CF510AF11120B80B4
:10087600752801E527640345266005E528B40127A8
:100886007C007D64AF82AE83120AFB8E088F097CE2
:10089600007D0A120AFBED2430F513E43CF512AF95
:1008A60013120B80752801E527640245266005E5CD
:1008B60028B401277C007D0AAF82AE83120AFB8E24
:1008C600088F097C007D0A120AFBED2430F50BE443
:1008D6003CF50AAF0B120B80752801E5276401452C
:1008E600266005E528B40119AE83AF827C007D0A37
:1008F600120AFBED2430F50EE43CF50DAF0E120B9B
:1009060080D3E5279405E5266480948040097BFF23
:070916007A0C7987120C072F
:01091D0022B7
:100C4E008F80D2B6C2B67F027E00120C2E7580FF48
:060C5E00D2B7AF80C2B75F
:010C6400226D
:10091E00E4F521C2B7C2B6120A69120C767F011233
:10092E000C4EEFFB7A007526007527037D017F01C3
:10093E001208007F03120C4EEFFB7A00752600752D
:10094E0027037D057F01120800E4FF120C4EEFFB1A
:10095E007A007526007527037D097F011208007F36
:10096E0007120C4EEFFB7A007526007527037D0DDE
:10097E007F011208007F02120C4EEFFB7A007526E3
:10098E00007527037D017F021208007F04120C4EB2
:10099E00EFFB7A007526007527037D057F0212088E
:1009AE00007F05120C4EEFFB7A00752600752703AB
:1009BE007D097F021208007F06120C4EEFFB7A00B3
:0F09CE007526007527037D0D7F0212080080FE3D
:030000000209DD15
:0C09DD00787FE4F6D8FD75812B020A2417
:100AE200BB010689828A83E0225002E722BBFE0212
:090AF200E32289828A83E4932245
:100AFB00BC000BBE0029EF8DF084FFADF022E4CCDF
:100B0B00F875F008EF2FFFEE33FEEC33FCEE9DECA7
:100B1B00984005FCEE9DFE0FD5F0E9E4CEFD22EDED
:100B2B00F8F5F0EE8420D21CFEADF075F008EF2F37
:100B3B00FFED33FD4007985006D5F0F222C398FD28
:050B4B000FD5F0EA22C5
:1009E90002091EE493A3F8E493A34003F68001F2FD
:1009F90008DFF48029E493A3F85407240CC8C3330F
:100A0900C4540F4420C8834004F456800146F6DFDD
:100A1900E4800B0102040810204080900C80E47EE1
:100A2900019360BCA3FF543F30E509541FFEE493D2
:100A3900A360010ECF54C025E060A840B8E493A399
:100A4900FAE493A3F8E493A3C8C582C8CAC583CAC4
:100A5900F0A3C8C582C8CAC583CADFE9DEE780BE7C
:010C8600006D
:00000001FF
