:060C3E004552524F520026
:030C4400010C00A0
:100BA600E4FDFCC3ED9FEC9E5015E4FBFA0BBB0085
:0F0BB600010AEB64354A70F50DBD00010C80E4B7
:010BC500220D
:0D0B2800D2A4C2A4E94408F5A0D2A4C2A43E
:100B3500E5A05480FFC2A4C2A6D2A5300013D2A45A
:100B4500EF447FF5A0E5A0640324FF9200C2A480D2
:010B5500EAB5
:010B5600227C
:100BE5008F0C7804EF08800103D8FDF50C540FFF36
:010BF50022DD
:020AC800AE0777
:100ACA00E5A05480FD120B35AF06120BE5EF4DF58C
:100ADA00A0C2A5C2A6D2A4C2A4EE540F4DF5A0C2CC
:0E0AEA00A5C2A6D2A4C2A47F027E00020BA663
:020AF800AE0747
:100AFA00E5A05480FD120BE5AC07120B35EC4DF561
:100B0A00A0C2A5D2A6D2A4C2A4EE540F4DF5A0C28B
:0E0B1A00A5D2A6D2A4C2A47F027E00020BA622
:1009AA00E5A05480F9C2A6C2A57F287E00120BA634
:1009BA00C2A4E94403F5A0D2A4C2A47F04120BA6E0
:1009CA00E94403F5A0D2A4C2A47F02120BA6E9440B
:1009DA0003F5A0D2A4C2A4120BA6E94402120B2F5B
:1009EA00E94402F5A0120B2889A0120B2889A0D28B
:1009FA00A4C2A4E94401120B2F89A0D2A4C2A4E97B
:100A0A004406120B2F7F0F120AC87F01120AC87FF1
:090A1A0006120AC87F80020AC816
:100B5700A905EF24FE600F146011146013240370BD
:100B670016E9247F800DE924BF8008E924938003D8
:080B7700E924D3FF120AC82291
:100B7F008B1D8A1E891FAB1DAA1EA91F120A23FFD8
:100B8F006010120AF87401251FF51FE4351EF51EBB
:070B9F0080E47F0C020AC88C
:0A0C07007F01120AC87F80020AC8AC
:060800008F168B828A8333
:10080600E4F51CE5166003ED70077F80120AC880C8
:1008160005AF16120B57E51B6405451A6005E51C66
:10082600B4011C7C277D10AF82AE83120A3CEF24F4
:1008360030F515E43EF514AF15120AF8751C01E5FE
:100846001B6404451A6005E51CB401277C037DE89A
:10085600AF82AE83120A3C8E088F097C007D0A1295
:100866000A3CED2430F511E43CF510AF11120AF8FC
:10087600751C01E51B6403451A6005E51CB40127D8
:100886007C007D64AF82AE83120A3C8E088F097CA1
:10089600007D0A120A3CED2430F513E43CF512AF54
:1008A60013120AF8751C01E51B6402451A6005E57A
:1008B6001CB401277C007D0AAF82AE83120A3C8EEF
:1008C600088F097C007D0A120A3CED2430F50BE402
:1008D6003CF50AAF0B120AF8751C01E51B640145CD
:1008E6001A6005E51CB40119AE83AF827C007D0A4F
:1008F600120A3CED2430F50EE43CF50DAF0E120A5B
:10090600F8D3E51B9405E51A6480948040097BFFC3
:070916007A0C793E120B7F01
:01091D0022B7
:100BF600758920758DFD758840759850C298C29983
:010C060022CB
:020C4800AF9962
:010C4A002287
:090C1100D292D291C2B4C2902229
:090C1A00C292C291D2B4D2902220
:090C2300D292C291C2B4D2902217
:090C2C00C292D291D2B4C290220E
:090C3500C292C291C2B4C2902225
:100A9100E50FB43802C2A7E50FB43902D2A7E50FBA
:100AA100B43003120C11E50FB43103120C1AE50F27
:100AB100B43203120C2CE50FB43303120C23E50FEF
:070AC100B43403120C3522CE
:100BC600D2A7120BF61209AA120C073098FD120CC6
:0F0BD600488F0F120AF8120A91C298C29980EC48
:0300000002091ED4
:0C091E00787FE4F6D8FD758120020965A1
:100A2300BB010689828A83E0225002E722BBFE02D1
:090A3300E32289828A83E4932204
:100A3C00BC000BBE0029EF8DF084FFADF022E4CC9E
:100A4C00F875F008EF2FFFEE33FEEC33FCEE9DEC67
:100A5C00984005FCEE9DFE0FD5F0E9E4CEFD22EDAD
:100A6C00F8F5F0EE8420D21CFEADF075F008EF2FF7
:100A7C00FFED33FD4007985006D5F0F222C398FDE8
:050A8C000FD5F0EA2285
:10092A00020BC6E493A3F8E493A34003F68001F212
:10093A0008DFF48029E493A3F85407240CC8C333CE
:10094A00C4540F4420C8834004F456800146F6DF9D
:10095A00E4800B0102040810204080900C44E47EDD
:10096A00019360BCA3FF543F30E509541FFEE49392
:10097A00A360010ECF54C025E060A840B8E493A359
:10098A00FAE493A3F8E493A3C8C582C8CAC583CA84
:10099A00F0A3C8C582C8CAC583CADFE9DEE780BE3C
:010C470000AC
:00000001FF
