:060D5A004552524F520009
:090D3E0001260001290001210039
:100CB000E4FDFCC3ED9FEC9E5015E4FBFA0BBB007A
:0F0CC000010AEB64354A70F50DBD00010C80E4AC
:010CCF002202
:0D0C3200D2A4C2A4E94408F5A0D2A4C2A433
:100C3F00E5A05480FFC2A4C2A6D2A5300013D2A44F
:100C4F00EF447FF5A0E5A0640324FF9200C2A480C7
:010C5F00EAAA
:010C60002271
:100D23008F267804EF08800103D8FDF526540FFFC2
:010D3300229D
:020BD200AE076C
:100BD400E5A05480FD120C3FAF06120D23EF4DF536
:100BE400A0C2A5C2A6D2A4C2A4EE540F4DF5A0C2C1
:0E0BF400A5C2A6D2A4C2A47F027E00020CB04D
:020C0200AE073B
:100C0400E5A05480FD120D23AC07120C3FEC4DF50A
:100C1400A0C2A5D2A6D2A4C2A4EE540F4DF5A0C280
:0E0C2400A5D2A6D2A4C2A47F027E00020CB00C
:100AEB00E5A05480F9C2A6C2A57F287E00120CB0E7
:100AFB00C2A4E94403F5A0D2A4C2A47F04120CB093
:100B0B00E94403F5A0D2A4C2A47F02120CB0E944BD
:100B1B0003F5A0D2A4C2A4120CB0E94402120C3902
:100B2B00E94402F5A0120C3289A0120C3289A0D232
:100B3B00A4C2A4E94401120C3989A0D2A4C2A4E92D
:100B4B004406120C397F0F120BD27F01120BD27F8E
:090B5B0006120BD27F80020BD2BE
:100C6100A905EF24FE600F146011146013240370B2
:100C710016E9247F800DE924BF8008E924938003CD
:080C8100E924D3FF120BD2227B
:100C89008B168A178918AB16AA17A918120B64FFB5
:100C99006010120C0274012518F518E43517F517C0
:070CA90080E47F0C020BD276
:0A0D34007F01120BD27F80020BD268
:060941008F0F8B828A83F8
:10094700E4F515E50F6003ED70077F80120BD28089
:1009570005AF0F120C61E514640545136005E51535
:10096700B4011C7C277D10AF82AE83120B7DEF2470
:1009770030F52FE43EF52EAF2F120C02751501E569
:1009870014640445136005E515B401277C037DE86D
:10099700AF82AE83120B7D8E228F237C007D0A12DD
:1009A7000B7DED2430F52BE43CF52AAF2B120C021E
:1009B700751501E514640345136005E515B40127B2
:1009C7007C007D64AF82AE83120B7D8E228F237CE9
:1009D700007D0A120B7DED2430F52DE43CF52CAF9C
:1009E7002D120C02751501E514640245136005E527
:1009F70015B401277C007D0AAF82AE83120B7D8E72
:100A0700228F237C007D0A120B7DED2430F525E42F
:100A17003CF524AF25120C02751501E51464014558
:100A2700136005E515B40119AE83AF827C007D0A1A
:100A3700120B7DED2430F528E43CF527AF28120C86
:100A470002D3E5149405E5136480948040097BFF85
:070A57007A0D795A120C8997
:010A5E002275
:100CE8008F80D2B6C2B67F027E00120CB07580FF2C
:060CF800D2B7AF80C2B7C5
:010CFE0022D3
:030D60008FFA22E5
:030D63008FFB22E1
:090D4800D292D291C2B4C29022F1
:100CFF00D292D291C2B4C2907F5F120D607F2F0249
:020D0F000D6372
:100D1100D292D291C2B4C2907F3F120D607F5F0226
:020D21000D6360
:090D5100C292C291C2B4C2902208
:100CD00075D98075D840E4F5EA75FAFFF5EB75FB38
:080CE000FF75DA4275DB4222C8
:10080000E4F508F509F50AF50BF50CF50DF50EC242
:10081000B7C2B6120AEB120CD0120D34120D487F7B
:100820004F120D60120D637F04120CE87508008FE3
:10083000097F05120CE8750A008F0B7F06120CE881
:10084000750C008F0D751300751403AB09AA087D94
:10085000017F01120941751300751403AB0BAA0A3D
:100860007D067F01120941751300751403AB0DAAB3
:100870000C7D0B7F01120941E521FB7A0075130005
:100880007514017D017F02120941E4F521D3E509C8
:100890009432E5089400401EE50B9414E50A940098
:1008A0005014E50D9432E50C9400400AE5217006E1
:1008B000752101120D48C3E5099432E508940050F2
:1008C0001FE50D9432E50C94004015E5217011757B
:1008D0002101120CFFD3E5099432E508940050F58C
:1008E000D3E5099432E5089400401FE50D9432E504
:1008F0000C94005015E5217011752101120D11D3D2
:10090000E50D9432E50C940050F5D3E5099432E5F9
:100910000894005003020827D3E50B9432E50A94AB
:10092000005003020827D3E50D9432E50C940050E3
:1009300003020827E5216003020827120D5102086F
:01094000278F
:03000000020A5F92
:0C0A5F00787FE4F6D8FD75812F020AA60E
:100B6400BB010689828A83E0225002E722BBFE028F
:090B7400E32289828A83E49322C2
:100B7D00BC000BBE0029EF8DF084FFADF022E4CC5C
:100B8D00F875F008EF2FFFEE33FEEC33FCEE9DEC25
:100B9D00984005FCEE9DFE0FD5F0E9E4CEFD22ED6B
:100BAD00F8F5F0EE8420D21CFEADF075F008EF2FB5
:100BBD00FFED33FD4007985006D5F0F222C398FDA6
:050BCD000FD5F0EA2243
:100A6B00020800E493A3F8E493A34003F68001F299
:100A7B0008DFF48029E493A3F85407240CC8C3338C
:100A8B00C4540F4420C8834004F456800146F6DF5B
:100A9B00E4800B0102040810204080900D3EE47EA0
:100AAB00019360BCA3FF543F30E509541FFEE49350
:100ABB00A360010ECF54C025E060A840B8E493A317
:100ACB00FAE493A3F8E493A3C8C582C8CAC583CA42
:100ADB00F0A3C8C582C8CAC583CADFE9DEE780BEFA
:010D470000AB
:00000001FF
